{
    "contractName": "CFXBJGENESIS2021",
    "abi": [
        {
            "inputs": [],
            "stateMutability": "nonpayable",
            "type": "constructor"
        },
        {
            "anonymous": false,
            "inputs": [
                {
                    "indexed": true,
                    "internalType": "address",
                    "name": "account",
                    "type": "address"
                },
                {
                    "indexed": true,
                    "internalType": "address",
                    "name": "operator",
                    "type": "address"
                },
                {
                    "indexed": false,
                    "internalType": "bool",
                    "name": "approved",
                    "type": "bool"
                }
            ],
            "name": "ApprovalForAll",
            "type": "event"
        },
        {
            "anonymous": false,
            "inputs": [
                {
                    "indexed": false,
                    "internalType": "address",
                    "name": "_onwer",
                    "type": "address"
                },
                {
                    "indexed": false,
                    "internalType": "uint256",
                    "name": "_tokenId",
                    "type": "uint256"
                },
                {
                    "indexed": false,
                    "internalType": "string",
                    "name": "metedata",
                    "type": "string"
                }
            ],
            "name": "CFXBJGENESISMint",
            "type": "event"
        },
        {
            "anonymous": false,
            "inputs": [
                {
                    "indexed": true,
                    "internalType": "address",
                    "name": "previousOperator",
                    "type": "address"
                },
                {
                    "indexed": true,
                    "internalType": "address",
                    "name": "newOperator",
                    "type": "address"
                }
            ],
            "name": "OperatorTransferred",
            "type": "event"
        },
        {
            "anonymous": false,
            "inputs": [
                {
                    "indexed": true,
                    "internalType": "address",
                    "name": "previousOwner",
                    "type": "address"
                },
                {
                    "indexed": true,
                    "internalType": "address",
                    "name": "newOwner",
                    "type": "address"
                }
            ],
            "name": "OwnershipTransferred",
            "type": "event"
        },
        {
            "anonymous": false,
            "inputs": [
                {
                    "indexed": true,
                    "internalType": "address",
                    "name": "operator",
                    "type": "address"
                },
                {
                    "indexed": true,
                    "internalType": "address",
                    "name": "from",
                    "type": "address"
                },
                {
                    "indexed": true,
                    "internalType": "address",
                    "name": "to",
                    "type": "address"
                },
                {
                    "indexed": false,
                    "internalType": "uint256[]",
                    "name": "ids",
                    "type": "uint256[]"
                },
                {
                    "indexed": false,
                    "internalType": "uint256[]",
                    "name": "values",
                    "type": "uint256[]"
                }
            ],
            "name": "TransferBatch",
            "type": "event"
        },
        {
            "anonymous": false,
            "inputs": [
                {
                    "indexed": true,
                    "internalType": "address",
                    "name": "operator",
                    "type": "address"
                },
                {
                    "indexed": true,
                    "internalType": "address",
                    "name": "from",
                    "type": "address"
                },
                {
                    "indexed": true,
                    "internalType": "address",
                    "name": "to",
                    "type": "address"
                },
                {
                    "indexed": false,
                    "internalType": "uint256",
                    "name": "id",
                    "type": "uint256"
                },
                {
                    "indexed": false,
                    "internalType": "uint256",
                    "name": "value",
                    "type": "uint256"
                }
            ],
            "name": "TransferSingle",
            "type": "event"
        },
        {
            "anonymous": false,
            "inputs": [
                {
                    "indexed": false,
                    "internalType": "string",
                    "name": "value",
                    "type": "string"
                },
                {
                    "indexed": true,
                    "internalType": "uint256",
                    "name": "id",
                    "type": "uint256"
                }
            ],
            "name": "URI",
            "type": "event"
        },
        {
            "inputs": [],
            "name": "SPONSOR",
            "outputs": [
                {
                    "internalType": "contract SponsorWhitelistControl",
                    "name": "",
                    "type": "address"
                }
            ],
            "stateMutability": "view",
            "type": "function"
        },
        {
            "inputs": [
                {
                    "internalType": "address",
                    "name": "_to",
                    "type": "address"
                },
                {
                    "internalType": "string",
                    "name": "_metadataUri",
                    "type": "string"
                }
            ],
            "name": "addItem",
            "outputs": [],
            "stateMutability": "nonpayable",
            "type": "function"
        },
        {
            "inputs": [
                {
                    "internalType": "address",
                    "name": "_manager",
                    "type": "address"
                }
            ],
            "name": "addManager",
            "outputs": [],
            "stateMutability": "nonpayable",
            "type": "function"
        },
        {
            "inputs": [
                {
                    "internalType": "address",
                    "name": "_miner",
                    "type": "address"
                }
            ],
            "name": "addMiner",
            "outputs": [],
            "stateMutability": "nonpayable",
            "type": "function"
        },
        {
            "inputs": [
                {
                    "internalType": "address",
                    "name": "account",
                    "type": "address"
                },
                {
                    "internalType": "uint256",
                    "name": "id",
                    "type": "uint256"
                }
            ],
            "name": "balanceOf",
            "outputs": [
                {
                    "internalType": "uint256",
                    "name": "",
                    "type": "uint256"
                }
            ],
            "stateMutability": "view",
            "type": "function"
        },
        {
            "inputs": [
                {
                    "internalType": "address[]",
                    "name": "accounts",
                    "type": "address[]"
                },
                {
                    "internalType": "uint256[]",
                    "name": "ids",
                    "type": "uint256[]"
                }
            ],
            "name": "balanceOfBatch",
            "outputs": [
                {
                    "internalType": "uint256[]",
                    "name": "",
                    "type": "uint256[]"
                }
            ],
            "stateMutability": "view",
            "type": "function"
        },
        {
            "inputs": [
                {
                    "internalType": "address[]",
                    "name": "_initialOwners",
                    "type": "address[]"
                },
                {
                    "internalType": "string[]",
                    "name": "_uris",
                    "type": "string[]"
                }
            ],
            "name": "batchAddItemByAddress",
            "outputs": [],
            "stateMutability": "nonpayable",
            "type": "function"
        },
        {
            "inputs": [
                {
                    "internalType": "address",
                    "name": "_to",
                    "type": "address"
                },
                {
                    "internalType": "uint256",
                    "name": "_amount",
                    "type": "uint256"
                }
            ],
            "name": "batchAddItemByNumber",
            "outputs": [],
            "stateMutability": "nonpayable",
            "type": "function"
        },
        {
            "inputs": [
                {
                    "internalType": "address",
                    "name": "owner",
                    "type": "address"
                },
                {
                    "internalType": "uint256",
                    "name": "tokenId",
                    "type": "uint256"
                }
            ],
            "name": "burn",
            "outputs": [],
            "stateMutability": "nonpayable",
            "type": "function"
        },
        {
            "inputs": [
                {
                    "internalType": "address",
                    "name": "account",
                    "type": "address"
                },
                {
                    "internalType": "address",
                    "name": "operator",
                    "type": "address"
                }
            ],
            "name": "isApprovedForAll",
            "outputs": [
                {
                    "internalType": "bool",
                    "name": "",
                    "type": "bool"
                }
            ],
            "stateMutability": "view",
            "type": "function"
        },
        {
            "inputs": [],
            "name": "isOperator",
            "outputs": [
                {
                    "internalType": "bool",
                    "name": "",
                    "type": "bool"
                }
            ],
            "stateMutability": "view",
            "type": "function"
        },
        {
            "inputs": [
                {
                    "internalType": "address",
                    "name": "_owner",
                    "type": "address"
                },
                {
                    "internalType": "uint256",
                    "name": "_id",
                    "type": "uint256"
                }
            ],
            "name": "isTokenOwner",
            "outputs": [
                {
                    "internalType": "bool",
                    "name": "",
                    "type": "bool"
                }
            ],
            "stateMutability": "view",
            "type": "function"
        },
        {
            "inputs": [
                {
                    "internalType": "address",
                    "name": "",
                    "type": "address"
                }
            ],
            "name": "managers",
            "outputs": [
                {
                    "internalType": "bool",
                    "name": "",
                    "type": "bool"
                }
            ],
            "stateMutability": "view",
            "type": "function"
        },
        {
            "inputs": [
                {
                    "internalType": "address",
                    "name": "",
                    "type": "address"
                }
            ],
            "name": "miners",
            "outputs": [
                {
                    "internalType": "bool",
                    "name": "",
                    "type": "bool"
                }
            ],
            "stateMutability": "view",
            "type": "function"
        },
        {
            "inputs": [
                {
                    "internalType": "string",
                    "name": "_metadataUri",
                    "type": "string"
                }
            ],
            "name": "mint",
            "outputs": [],
            "stateMutability": "nonpayable",
            "type": "function"
        },
        {
            "inputs": [],
            "name": "name",
            "outputs": [
                {
                    "internalType": "string",
                    "name": "",
                    "type": "string"
                }
            ],
            "stateMutability": "view",
            "type": "function"
        },
        {
            "inputs": [],
            "name": "operator",
            "outputs": [
                {
                    "internalType": "address",
                    "name": "",
                    "type": "address"
                }
            ],
            "stateMutability": "view",
            "type": "function"
        },
        {
            "inputs": [],
            "name": "owner",
            "outputs": [
                {
                    "internalType": "address",
                    "name": "",
                    "type": "address"
                }
            ],
            "stateMutability": "view",
            "type": "function"
        },
        {
            "inputs": [
                {
                    "internalType": "uint256",
                    "name": "_id",
                    "type": "uint256"
                }
            ],
            "name": "ownerOf",
            "outputs": [
                {
                    "internalType": "address[]",
                    "name": "",
                    "type": "address[]"
                }
            ],
            "stateMutability": "view",
            "type": "function"
        },
        {
            "inputs": [
                {
                    "internalType": "uint256",
                    "name": "",
                    "type": "uint256"
                },
                {
                    "internalType": "uint256",
                    "name": "",
                    "type": "uint256"
                }
            ],
            "name": "ownerOfAddress",
            "outputs": [
                {
                    "internalType": "address",
                    "name": "",
                    "type": "address"
                }
            ],
            "stateMutability": "view",
            "type": "function"
        },
        {
            "inputs": [],
            "name": "price",
            "outputs": [
                {
                    "internalType": "uint256",
                    "name": "",
                    "type": "uint256"
                }
            ],
            "stateMutability": "view",
            "type": "function"
        },
        {
            "inputs": [
                {
                    "internalType": "address",
                    "name": "_manager",
                    "type": "address"
                }
            ],
            "name": "removeManager",
            "outputs": [],
            "stateMutability": "nonpayable",
            "type": "function"
        },
        {
            "inputs": [
                {
                    "internalType": "address",
                    "name": "_miner",
                    "type": "address"
                }
            ],
            "name": "removeMiner",
            "outputs": [],
            "stateMutability": "nonpayable",
            "type": "function"
        },
        {
            "inputs": [],
            "name": "renounceOwnership",
            "outputs": [],
            "stateMutability": "nonpayable",
            "type": "function"
        },
        {
            "inputs": [
                {
                    "internalType": "address",
                    "name": "from",
                    "type": "address"
                },
                {
                    "internalType": "address",
                    "name": "to",
                    "type": "address"
                },
                {
                    "internalType": "uint256[]",
                    "name": "ids",
                    "type": "uint256[]"
                },
                {
                    "internalType": "uint256[]",
                    "name": "amounts",
                    "type": "uint256[]"
                },
                {
                    "internalType": "bytes",
                    "name": "data",
                    "type": "bytes"
                }
            ],
            "name": "safeBatchTransferFrom",
            "outputs": [],
            "stateMutability": "nonpayable",
            "type": "function"
        },
        {
            "inputs": [
                {
                    "internalType": "address",
                    "name": "from",
                    "type": "address"
                },
                {
                    "internalType": "address",
                    "name": "to",
                    "type": "address"
                },
                {
                    "internalType": "uint256",
                    "name": "tokenId",
                    "type": "uint256"
                },
                {
                    "internalType": "uint256",
                    "name": "amount",
                    "type": "uint256"
                },
                {
                    "internalType": "bytes",
                    "name": "data",
                    "type": "bytes"
                }
            ],
            "name": "safeTransferFrom",
            "outputs": [],
            "stateMutability": "nonpayable",
            "type": "function"
        },
        {
            "inputs": [
                {
                    "internalType": "address",
                    "name": "operator",
                    "type": "address"
                },
                {
                    "internalType": "bool",
                    "name": "approved",
                    "type": "bool"
                }
            ],
            "name": "setApprovalForAll",
            "outputs": [],
            "stateMutability": "nonpayable",
            "type": "function"
        },
        {
            "inputs": [
                {
                    "internalType": "string",
                    "name": "_baseUri",
                    "type": "string"
                }
            ],
            "name": "setBaseUri",
            "outputs": [],
            "stateMutability": "nonpayable",
            "type": "function"
        },
        {
            "inputs": [
                {
                    "internalType": "uint256",
                    "name": "_price",
                    "type": "uint256"
                }
            ],
            "name": "setPrice",
            "outputs": [],
            "stateMutability": "nonpayable",
            "type": "function"
        },
        {
            "inputs": [
                {
                    "internalType": "uint256",
                    "name": "tokenId",
                    "type": "uint256"
                },
                {
                    "internalType": "uint256",
                    "name": "featureCode",
                    "type": "uint256"
                }
            ],
            "name": "setTokenFeatureCode",
            "outputs": [],
            "stateMutability": "nonpayable",
            "type": "function"
        },
        {
            "inputs": [
                {
                    "internalType": "bytes4",
                    "name": "interfaceId",
                    "type": "bytes4"
                }
            ],
            "name": "supportsInterface",
            "outputs": [
                {
                    "internalType": "bool",
                    "name": "",
                    "type": "bool"
                }
            ],
            "stateMutability": "view",
            "type": "function"
        },
        {
            "inputs": [],
            "name": "symbol",
            "outputs": [
                {
                    "internalType": "string",
                    "name": "",
                    "type": "string"
                }
            ],
            "stateMutability": "view",
            "type": "function"
        },
        {
            "inputs": [
                {
                    "internalType": "uint256",
                    "name": "",
                    "type": "uint256"
                }
            ],
            "name": "tokenFeatureCode",
            "outputs": [
                {
                    "internalType": "uint256",
                    "name": "",
                    "type": "uint256"
                }
            ],
            "stateMutability": "view",
            "type": "function"
        },
        {
            "inputs": [
                {
                    "internalType": "uint256",
                    "name": "",
                    "type": "uint256"
                }
            ],
            "name": "tokenMetaData",
            "outputs": [
                {
                    "internalType": "string",
                    "name": "",
                    "type": "string"
                }
            ],
            "stateMutability": "view",
            "type": "function"
        },
        {
            "inputs": [
                {
                    "internalType": "address",
                    "name": "_owner",
                    "type": "address"
                }
            ],
            "name": "tokensOf",
            "outputs": [
                {
                    "internalType": "uint256[]",
                    "name": "_tokens",
                    "type": "uint256[]"
                }
            ],
            "stateMutability": "view",
            "type": "function"
        },
        {
            "inputs": [],
            "name": "totalSupply",
            "outputs": [
                {
                    "internalType": "uint256",
                    "name": "",
                    "type": "uint256"
                }
            ],
            "stateMutability": "view",
            "type": "function"
        },
        {
            "inputs": [
                {
                    "internalType": "address",
                    "name": "newOperator_",
                    "type": "address"
                }
            ],
            "name": "transferOperator",
            "outputs": [],
            "stateMutability": "nonpayable",
            "type": "function"
        },
        {
            "inputs": [
                {
                    "internalType": "address",
                    "name": "newOwner",
                    "type": "address"
                }
            ],
            "name": "transferOwnership",
            "outputs": [],
            "stateMutability": "nonpayable",
            "type": "function"
        },
        {
            "inputs": [
                {
                    "internalType": "uint256",
                    "name": "_id",
                    "type": "uint256"
                }
            ],
            "name": "uri",
            "outputs": [
                {
                    "internalType": "string",
                    "name": "",
                    "type": "string"
                }
            ],
            "stateMutability": "view",
            "type": "function"
        },
        {
            "inputs": [
                {
                    "internalType": "uint256",
                    "name": "_amount",
                    "type": "uint256"
                }
            ],
            "name": "withdrawMain",
            "outputs": [],
            "stateMutability": "nonpayable",
            "type": "function"
        },
        {
            "stateMutability": "payable",
            "type": "receive"
        }
    ],
    "bytecode": "60c0604052600c60808190526b434658424a47454e4553495360a01b60a09081526200002f91600991906200032a565b5060408051808201909152600c8082526b636678626a67656e6573697360a01b60209092019182526200006591600a916200032a565b50674563918244f400006013553480156200007f57600080fd5b5060405180608001604052806051815260200162003a5860519139620000b56301ffc9a760e01b6001600160e01b03620002b116565b620000c9816001600160e01b036200030c16565b620000e4636cdb3d1360e11b6001600160e01b03620002b116565b620000ff6303a24d0760e21b6001600160e01b03620002b116565b506000620001156001600160e01b036200032516565b600480546001600160a01b0319166001600160a01b038316908117909155604051919250906000907f8be0079c531659141344cd1fd0a4f28419497f9722a3daafe3b4186f6b6457e0908290a350620001766001600160e01b036200032516565b600580546001600160a01b0319166001600160a01b0392831617908190556040519116906000907f74da04524d50c64947f5dd5381ef1a4dca5cba8ed1d816243f9e48aa0b5617ed908290a360405180608001604052806051815260200162003a58605191398051620001f291600f916020909101906200032a565b50604080516001808252818301909252606091602080830190803683370190505090506000816000815181106200022557fe5b6001600160a01b0390921660209283029190910190910152604051630809469f60e11b8152730888000000000000000000000000000000000001906310128d3e9062000276908490600401620003cc565b600060405180830381600087803b1580156200029157600080fd5b505af1158015620002a6573d6000803e3d6000fd5b505050505062000452565b6001600160e01b03198082161415620002e75760405162461bcd60e51b8152600401620002de906200041b565b60405180910390fd5b6001600160e01b0319166000908152602081905260409020805460ff19166001179055565b8051620003219060039060208401906200032a565b5050565b335b90565b828054600181600116156101000203166002900490600052602060002090601f016020900481019282601f106200036d57805160ff19168380011785556200039d565b828001600101855582156200039d579182015b828111156200039d57825182559160200191906001019062000380565b50620003ab929150620003af565b5090565b6200032791905b80821115620003ab5760008155600101620003b6565b6020808252825182820181905260009190848201906040850190845b818110156200040f5783516001600160a01b031683529284019291840191600101620003e8565b50909695505050505050565b6020808252601c908201527f4552433136353a20696e76616c696420696e7465726661636520696400000000604082015260600190565b6135f680620004626000396000f3fe60806040526004361061023e5760003560e01c80638da5cb5b1161012e578063cdf3d474116100ab578063f3982e5e1161006f578063f3982e5e146106a0578063f5314c97146106c0578063f65a60cb146106e0578063f678541314610700578063fdff9b4d1461072057610245565b8063cdf3d47414610600578063d85d3d2714610620578063e985e9c514610640578063f242432a14610660578063f2fde38b1461068057610245565b8063a035b1fe116100f2578063a035b1fe1461056b578063a0bcfc7f14610580578063a22cb465146105a0578063ac18de43146105c0578063af6a3476146105e057610245565b80638da5cb5b146104e157806391b7f5ed146104f657806395d89b411461051657806398f7ceab1461052b5780639dc29fac1461054b57610245565b80632eb2c2d6116101bc5780635a3f2672116101805780635a3f26721461043f5780635a7d188a1461045f5780636352211e1461047f578063648ec7b9146104ac578063715018a6146104cc57610245565b80632eb2c2d6146103a857806336e0271d146103c85780634456eda2146103e85780634e1273f4146103fd578063570ca7351461042a57610245565b806318160ddd1161020357806318160ddd146103115780631d073a7a146103265780631d61c7e11461034857806329605e77146103685780632d06177a1461038857610245565b8062fdd58e1461024a57806301ffc9a71461028057806306fdde03146102ad5780630e89341c146102cf57806310242590146102ef57610245565b3661024557005b600080fd5b34801561025657600080fd5b5061026a610265366004612a56565b610740565b60405161027791906133f8565b60405180910390f35b34801561028c57600080fd5b506102a061029b366004612b9f565b61079c565b6040516102779190612e3a565b3480156102b957600080fd5b506102c26107bf565b6040516102779190612e45565b3480156102db57600080fd5b506102c26102ea366004612c11565b61084d565b3480156102fb57600080fd5b5061030f61030a366004612872565b61097d565b005b34801561031d57600080fd5b5061026a6109d3565b34801561033257600080fd5b5061033b6109da565b6040516102779190612ccf565b34801561035457600080fd5b5061030f610363366004612c29565b6109f2565b34801561037457600080fd5b5061030f610383366004612872565b610a75565b34801561039457600080fd5b5061030f6103a3366004612872565b610ab6565b3480156103b457600080fd5b5061030f6103c33660046128c1565b610b0f565b3480156103d457600080fd5b5061030f6103e3366004612a09565b610b9e565b3480156103f457600080fd5b506102a0610bf1565b34801561040957600080fd5b5061041d610418366004612ae8565b610c17565b6040516102779190612e02565b34801561043657600080fd5b5061033b610d56565b34801561044b57600080fd5b5061041d61045a366004612872565b610d65565b34801561046b57600080fd5b5061033b61047a366004612c29565b610dd1565b34801561048b57600080fd5b5061049f61049a366004612c11565b610e06565b6040516102779190612db5565b3480156104b857600080fd5b506102a06104c7366004612872565b610e71565b3480156104d857600080fd5b5061030f610e86565b3480156104ed57600080fd5b5061033b610f05565b34801561050257600080fd5b5061030f610511366004612c11565b610f14565b34801561052257600080fd5b506102c2610f4e565b34801561053757600080fd5b506102a0610546366004612a56565b610fa9565b34801561055757600080fd5b5061030f610566366004612a56565b610fbe565b34801561057757600080fd5b5061026a61102c565b34801561058c57600080fd5b5061030f61059b366004612bd7565b611032565b3480156105ac57600080fd5b5061030f6105bb3660046129ce565b611083565b3480156105cc57600080fd5b5061030f6105db366004612872565b611151565b3480156105ec57600080fd5b506102c26105fb366004612c11565b6111a7565b34801561060c57600080fd5b5061030f61061b366004612a56565b61120f565b34801561062c57600080fd5b5061030f61063b366004612bd7565b6112b8565b34801561064c57600080fd5b506102a061065b36600461288d565b6112f7565b34801561066c57600080fd5b5061030f61067b36600461296a565b611325565b34801561068c57600080fd5b5061030f61069b366004612872565b61136d565b3480156106ac57600080fd5b5061030f6106bb366004612872565b611424565b3480156106cc57600080fd5b5061030f6106db366004612a80565b61147d565b3480156106ec57600080fd5b5061026a6106fb366004612c11565b611571565b34801561070c57600080fd5b5061030f61071b366004612c11565b611583565b34801561072c57600080fd5b506102a061073b366004612872565b6115c2565b60006001600160a01b0383166107715760405162461bcd60e51b815260040161076890612f21565b60405180910390fd5b5060008181526001602090815260408083206001600160a01b03861684529091529020545b92915050565b6001600160e01b0319811660009081526020819052604090205460ff165b919050565b6009805460408051602060026001851615610100026000190190941693909304601f810184900484028201840190925281815292918301828280156108455780601f1061081a57610100808354040283529160200191610845565b820191906000526020600020905b81548152906001019060200180831161082857829003601f168201915b505050505081565b600f805460408051602060026001851615610100026000190190941693909304601f810184900484028201840190925281815260609361079693919290918301828280156108dc5780601f106108b1576101008083540402835291602001916108dc565b820191906000526020600020905b8154815290600101906020018083116108bf57829003601f168201915b5050506000868152601160209081526040918290208054835160026001831615610100026000190190921691909104601f8101849004840282018401909452838152945092508301828280156109735780601f1061094857610100808354040283529160200191610973565b820191906000526020600020905b81548152906001019060200180831161095657829003601f168201915b50505050506115d7565b61098561161a565b6004546001600160a01b039081169116146109b25760405162461bcd60e51b8152600401610768906131d3565b6001600160a01b03166000908152600660205260409020805460ff19169055565b600d545b90565b73088800000000000000000000000000000000000181565b600660006109fe61161a565b6001600160a01b0316815260208101919091526040016000205460ff16610a375760405162461bcd60e51b815260040161076890613254565b60008281526012602052604090205415610a635760405162461bcd60e51b815260040161076890613208565b60009182526012602052604090912055565b610a7d61161a565b6004546001600160a01b03908116911614610aaa5760405162461bcd60e51b8152600401610768906131d3565b610ab38161161e565b50565b610abe61161a565b6004546001600160a01b03908116911614610aeb5760405162461bcd60e51b8152600401610768906131d3565b6001600160a01b03166000908152600760205260409020805460ff19166001179055565b610b1c858585858561169c565b60005b8351811015610b96576000848281518110610b3657fe5b602002602001015190506000848381518110610b4e57fe5b6020026020010151905060008111610b785760405162461bcd60e51b815260040161076890613083565b610b8288836118ae565b610b8c87836119c1565b5050600101610b1f565b505050505050565b60066000610baa61161a565b6001600160a01b0316815260208101919091526040016000205460ff16610be35760405162461bcd60e51b815260040161076890613254565b610bed8282611a6e565b5050565b6005546000906001600160a01b0316610c0861161a565b6001600160a01b031614905090565b60608151835114610c3a5760405162461bcd60e51b815260040161076890613326565b606083516001600160401b0381118015610c5357600080fd5b50604051908082528060200260200182016040528015610c7d578160200160208202803683370190505b50905060005b8451811015610d4e5760006001600160a01b0316858281518110610ca357fe5b60200260200101516001600160a01b03161415610cd25760405162461bcd60e51b815260040161076890612f6c565b60016000858381518110610ce257fe5b602002602001015181526020019081526020016000206000868381518110610d0657fe5b60200260200101516001600160a01b03166001600160a01b0316815260200190815260200160002054828281518110610d3b57fe5b6020908102919091010152600101610c83565b509392505050565b6005546001600160a01b031690565b6001600160a01b0381166000908152600b6020908152604091829020805483518184028101840190945280845260609392830182828015610dc557602002820191906000526020600020905b815481526020019060010190808311610db1575b50505050509050919050565b60106020528160005260406000208181548110610dea57fe5b6000918252602090912001546001600160a01b03169150829050565b600081815260106020908152604091829020805483518184028101840190945280845260609392830182828015610dc557602002820191906000526020600020905b81546001600160a01b03168152600190910190602001808311610e485750505050509050919050565b60066020526000908152604090205460ff1681565b610e8e61161a565b6004546001600160a01b03908116911614610ebb5760405162461bcd60e51b8152600401610768906131d3565b6004546040516000916001600160a01b0316907f8be0079c531659141344cd1fd0a4f28419497f9722a3daafe3b4186f6b6457e0908390a3600480546001600160a01b0319169055565b6004546001600160a01b031690565b610f1c61161a565b6004546001600160a01b03908116911614610f495760405162461bcd60e51b8152600401610768906131d3565b601355565b600a805460408051602060026001851615610100026000190190941693909304601f810184900484028201840190925281815292918301828280156108455780601f1061081a57610100808354040283529160200191610845565b600080610fb68484610740565b119392505050565b610fc661161a565b6004546001600160a01b03908116911614610ff35760405162461bcd60e51b8152600401610768906131d3565b610fff82826001611bac565b61100982826118ae565b6110146000826119c1565b6000818152600c6020526040812055610bed81611cc8565b60135481565b61103a61161a565b6004546001600160a01b039081169116146110675760405162461bcd60e51b8152600401610768906131d3565b61107081611d7c565b8051610bed90600f9060208401906126a5565b816001600160a01b031661109561161a565b6001600160a01b031614156110bc5760405162461bcd60e51b8152600401610768906132dd565b80600260006110c961161a565b6001600160a01b03908116825260208083019390935260409182016000908120918716808252919093529120805460ff19169215159290921790915561110d61161a565b6001600160a01b03167f17307eab39ab6107e8899845ad3d59bd9653f200f220920489ca2b5937696c31836040516111459190612e3a565b60405180910390a35050565b61115961161a565b6004546001600160a01b039081169116146111865760405162461bcd60e51b8152600401610768906131d3565b6001600160a01b03166000908152600760205260409020805460ff19169055565b60116020908152600091825260409182902080548351601f6002600019610100600186161502019093169290920491820184900484028101840190945280845290918301828280156108455780601f1061081a57610100808354040283529160200191610845565b6006600061121b61161a565b6001600160a01b0316815260208101919091526040016000205460ff166112545760405162461bcd60e51b815260040161076890613254565b60006112606008611d8f565b600101905060005b828110156112b2576112aa846112a5611282848601611d93565b60405180604001604052806005815260200164173539b7b760d91b8152506115d7565b611a6e565b600101611268565b50505050565b6112c061161a565b6004546001600160a01b039081169116146112ed5760405162461bcd60e51b8152600401610768906131d3565b610ab33382611a6e565b6001600160a01b03918216600090815260026020908152604080832093909416825291909152205460ff1690565b600082116113455760405162461bcd60e51b815260040161076890613083565b6113528585858585611e6a565b61135c85846118ae565b61136684846119c1565b5050505050565b61137561161a565b6004546001600160a01b039081169116146113a25760405162461bcd60e51b8152600401610768906131d3565b6001600160a01b0381166113c85760405162461bcd60e51b815260040161076890612fbd565b6004546040516001600160a01b038084169216907f8be0079c531659141344cd1fd0a4f28419497f9722a3daafe3b4186f6b6457e090600090a3600480546001600160a01b0319166001600160a01b0392909216919091179055565b61142c61161a565b6004546001600160a01b039081169116146114595760405162461bcd60e51b8152600401610768906131d3565b6001600160a01b03166000908152600660205260409020805460ff19166001179055565b6006600061148961161a565b6001600160a01b0316815260208101919091526040016000205460ff166114c25760405162461bcd60e51b815260040161076890613254565b8281146114e15760405162461bcd60e51b815260040161076890612eac565b8060005b81811015610b96576115698686838181106114fc57fe5b90506020020160208101906115119190612872565b85858481811061151d57fe5b905060200281019061152f919061340f565b8080601f016020809104026020016040519081016040528093929190818152602001838380828437600092019190915250611a6e92505050565b6001016114e5565b60126020526000908152604090205481565b61158b61161a565b6004546001600160a01b039081169116146115b85760405162461bcd60e51b8152600401610768906131d3565b610ab33382612004565b60076020526000908152604090205460ff1681565b60606116138383604051806020016040528060008152506040518060200160405280600081525060405180602001604052806000815250612085565b9392505050565b3390565b6001600160a01b0381166116445760405162461bcd60e51b815260040161076890613143565b6040516001600160a01b038216906000907f74da04524d50c64947f5dd5381ef1a4dca5cba8ed1d816243f9e48aa0b5617ed908290a3600580546001600160a01b0319166001600160a01b0392909216919091179055565b81518351146116bd5760405162461bcd60e51b81526004016107689061336f565b6001600160a01b0384166116e35760405162461bcd60e51b8152600401610768906130ac565b6116eb61161a565b6001600160a01b0316856001600160a01b0316148061171157506117118561065b61161a565b61172d5760405162461bcd60e51b8152600401610768906130f1565b600061173761161a565b9050611747818787878787610b96565b60005b845181101561184857600085828151811061176157fe5b60200260200101519050600085838151811061177957fe5b602002602001015190506117e6816040518060600160405280602a8152602001613597602a91396001600086815260200190815260200160002060008d6001600160a01b03166001600160a01b03168152602001908152602001600020546122a99092919063ffffffff16565b60008381526001602090815260408083206001600160a01b038e811685529252808320939093558a168152205461181d90826122d5565b60009283526001602081815260408086206001600160a01b038d16875290915290932055500161174a565b50846001600160a01b0316866001600160a01b0316826001600160a01b03167f4a39dc06d4c0dbc64b70af90fd698a233a518aa5d07e595d983b8c0526c8f7fb8787604051611898929190612e15565b60405180910390a4610b968187878787876122fa565b6001600160a01b0382166000908152600b60205260408120546118d890600163ffffffff61241116565b6000838152600c6020526040902054909150808214611973576001600160a01b0384166000908152600b6020526040812080548490811061191557fe5b9060005260206000200154905080600b6000876001600160a01b03166001600160a01b03168152602001908152602001600020838154811061195357fe5b6000918252602080832090910192909255918252600c9052604090208190555b6001600160a01b0384166000908152600b6020526040902080548061199457fe5b600082815260208082208301600019908101839055909201909255938152600c9093525050604081205550565b6001600160a01b0382166000908152600b602090815260408083208054858552600c84528285208190556001810182559084528284200184905583835260109091529020805415611a395780805480611a1657fe5b600082815260209020810160001990810180546001600160a01b03191690550190555b8054600181018255600091825260209091200180546001600160a01b0319166001600160a01b03939093169290921790915550565b611a786008612453565b6000611a846008611d8f565b60008181526011602090815260409091208451929350611aa89290918501906126a5565b50611b5983826001611b54600f8054600181600116156101000203166002900480601f016020809104026020016040519081016040528092919081815260200182805460018160011615610100020316600290048015611b495780601f10611b1e57610100808354040283529160200191611b49565b820191906000526020600020905b815481529060010190602001808311611b2c57829003601f168201915b5050505050876115d7565b61245c565b611b6281612546565b611b6c83826119c1565b7f3ac1cf58af8a32f77353095a2fce1376fd59e92da86e0b82b5ac15c8f23a7315838284604051611b9f93929190612d85565b60405180910390a1505050565b6001600160a01b038316611bd25760405162461bcd60e51b815260040161076890613190565b6000611bdc61161a565b9050611c0c81856000611bee8761258a565b611bf78761258a565b60405180602001604052806000815250610b96565b611c59826040518060600160405280602481526020016135736024913960008681526001602090815260408083206001600160a01b038b168452909152902054919063ffffffff6122a916565b60008481526001602090815260408083206001600160a01b03808a16808652919093528184209490945551919291908416907fc3d58168c5ae7397731d063d5bbf3d657854427343f4c083240f7aacaa2d0f6290611cba9088908890613401565b60405180910390a450505050565b600d54600090611cdf90600163ffffffff61241116565b6000838152600e6020526040812054600d8054939450909284908110611d0157fe5b9060005260206000200154905080600d8381548110611d1c57fe5b6000918252602080832090910192909255828152600e90915260409020829055600d805480611d4757fe5b600190038181906000526020600020016000905590556000600e60008681526020019081526020016000208190555050505050565b8051610bed9060039060208401906126a5565b5490565b606081611db857506040805180820190915260018152600360fc1b60208201526107ba565b8160005b8115611dd057600101600a82049150611dbc565b6060816001600160401b0381118015611de857600080fd5b506040519080825280601f01601f191660200182016040528015611e13576020820181803683370190505b50905060001982015b8515611e6157600a860660300160f81b82828060019003935081518110611e3f57fe5b60200101906001600160f81b031916908160001a905350600a86049550611e1c565b50949350505050565b6001600160a01b038416611e905760405162461bcd60e51b8152600401610768906130ac565b611e9861161a565b6001600160a01b0316856001600160a01b03161480611ebe5750611ebe8561065b61161a565b611eda5760405162461bcd60e51b81526004016107689061303a565b6000611ee461161a565b9050611f04818787611ef58861258a565b611efe8861258a565b87610b96565b611f51836040518060600160405280602a8152602001613597602a913960008781526001602090815260408083206001600160a01b038d168452909152902054919063ffffffff6122a916565b60008581526001602090815260408083206001600160a01b038b81168552925280832093909355871681522054611f8890846122d5565b60008581526001602090815260408083206001600160a01b03808b168086529190935292819020939093559151909188811691908416907fc3d58168c5ae7397731d063d5bbf3d657854427343f4c083240f7aacaa2d0f6290611fee9089908990613401565b60405180910390a4610b968187878787876125ce565b6000826001600160a01b03168260405161201d906109d7565b60006040518083038185875af1925050503d806000811461205a576040519150601f19603f3d011682016040523d82523d6000602084013e61205f565b606091505b50509050806120805760405162461bcd60e51b8152600401610768906132b1565b505050565b805182518451865188516060948a948a948a948a948a948a9491909201909201909101016001600160401b03811180156120be57600080fd5b506040519080825280601f01601f1916602001820160405280156120e9576020820181803683370190505b509050806000805b88518110156121425788818151811061210657fe5b602001015160f81c60f81b83838060010194508151811061212357fe5b60200101906001600160f81b031916908160001a9053506001016120f1565b5060005b87518110156121975787818151811061215b57fe5b602001015160f81c60f81b83838060010194508151811061217857fe5b60200101906001600160f81b031916908160001a905350600101612146565b5060005b86518110156121ec578681815181106121b057fe5b602001015160f81c60f81b8383806001019450815181106121cd57fe5b60200101906001600160f81b031916908160001a90535060010161219b565b5060005b85518110156122415785818151811061220557fe5b602001015160f81c60f81b83838060010194508151811061222257fe5b60200101906001600160f81b031916908160001a9053506001016121f0565b5060005b84518110156122965784818151811061225a57fe5b602001015160f81c60f81b83838060010194508151811061227757fe5b60200101906001600160f81b031916908160001a905350600101612245565b50909d9c50505050505050505050505050565b600081848411156122cd5760405162461bcd60e51b81526004016107689190612e45565b505050900390565b6000828201838110156116135760405162461bcd60e51b815260040161076890613003565b61230c846001600160a01b031661269f565b15610b965760405163bc197c8160e01b81526001600160a01b0385169063bc197c81906123459089908990889088908890600401612ce3565b602060405180830381600087803b15801561235f57600080fd5b505af192505050801561238f575060408051601f3d908101601f1916820190925261238c91810190612bbb565b60015b6123d85761239b6134a0565b806123a657506123c0565b8060405162461bcd60e51b81526004016107689190612e45565b60405162461bcd60e51b815260040161076890612e58565b6001600160e01b0319811663bc197c8160e01b146124085760405162461bcd60e51b815260040161076890612ed9565b50505050505050565b600061161383836040518060400160405280601e81526020017f536166654d6174683a207375627472616374696f6e206f766572666c6f7700008152506122a9565b80546001019055565b6001600160a01b0384166124825760405162461bcd60e51b8152600401610768906133b7565b600061248c61161a565b905061249e81600087611ef58861258a565b60008481526001602090815260408083206001600160a01b03891684529091529020546124d1908463ffffffff6122d516565b60008581526001602090815260408083206001600160a01b03808b16808652919093528184209490945551908416907fc3d58168c5ae7397731d063d5bbf3d657854427343f4c083240f7aacaa2d0f629061252f9089908990613401565b60405180910390a4611366816000878787876125ce565b600d80546000838152600e60205260408120829055600182018355919091527fd7b6990105719101dabeb77144f2a3385c8033acd3af97e9423a695e81ad1eb50155565b6040805160018082528183019092526060918291906020808301908036833701905050905082816000815181106125bd57fe5b602090810291909101015292915050565b6125e0846001600160a01b031661269f565b15610b965760405163f23a6e6160e01b81526001600160a01b0385169063f23a6e61906126199089908990889088908890600401612d40565b602060405180830381600087803b15801561263357600080fd5b505af1925050508015612663575060408051601f3d908101601f1916820190925261266091810190612bbb565b60015b61266f5761239b6134a0565b6001600160e01b0319811663f23a6e6160e01b146124085760405162461bcd60e51b815260040161076890612ed9565b3b151590565b828054600181600116156101000203166002900490600052602060002090601f016020900481019282601f106126e657805160ff1916838001178555612713565b82800160010185558215612713579182015b828111156127135782518255916020019190600101906126f8565b5061271f929150612723565b5090565b6109d791905b8082111561271f5760008155600101612729565b80356001600160a01b038116811461079657600080fd5b60008083601f840112612765578182fd5b5081356001600160401b0381111561277b578182fd5b602083019150836020808302850101111561279557600080fd5b9250929050565b600082601f8301126127ac578081fd5b81356127bf6127ba8261347b565b613455565b8181529150602080830190848101818402860182018710156127e057600080fd5b60005b848110156127ff578135845292820192908201906001016127e3565b505050505092915050565b600082601f83011261281a578081fd5b81356001600160401b0381111561282f578182fd5b612842601f8201601f1916602001613455565b915080825283602082850101111561285957600080fd5b8060208401602084013760009082016020015292915050565b600060208284031215612883578081fd5b611613838361273d565b6000806040838503121561289f578081fd5b6128a9848461273d565b91506128b8846020850161273d565b90509250929050565b600080600080600060a086880312156128d8578081fd5b85356128e381613547565b945060208601356128f381613547565b935060408601356001600160401b038082111561290e578283fd5b61291a89838a0161279c565b9450606088013591508082111561292f578283fd5b61293b89838a0161279c565b93506080880135915080821115612950578283fd5b5061295d8882890161280a565b9150509295509295909350565b600080600080600060a08688031215612981578081fd5b61298b878761273d565b945061299a876020880161273d565b9350604086013592506060860135915060808601356001600160401b038111156129c2578182fd5b61295d8882890161280a565b600080604083850312156129e0578182fd5b6129ea848461273d565b9150602083013580151581146129fe578182fd5b809150509250929050565b60008060408385031215612a1b578182fd5b8235612a2681613547565b915060208301356001600160401b03811115612a40578182fd5b612a4c8582860161280a565b9150509250929050565b60008060408385031215612a68578182fd5b612a72848461273d565b946020939093013593505050565b60008060008060408587031215612a95578384fd5b84356001600160401b0380821115612aab578586fd5b612ab788838901612754565b90965094506020870135915080821115612acf578384fd5b50612adc87828801612754565b95989497509550505050565b60008060408385031215612afa578182fd5b82356001600160401b0380821115612b10578384fd5b81850186601f820112612b21578485fd5b80359250612b316127ba8461347b565b80848252602080830192508084018a828389028701011115612b51578889fd5b8894505b86851015612b7b57612b678b8261273d565b845260019490940193928101928101612b55565b509096508701359350505080821115612b92578283fd5b50612a4c8582860161279c565b600060208284031215612bb0578081fd5b81356116138161355c565b600060208284031215612bcc578081fd5b81516116138161355c565b600060208284031215612be8578081fd5b81356001600160401b03811115612bfd578182fd5b612c098482850161280a565b949350505050565b600060208284031215612c22578081fd5b5035919050565b60008060408385031215612c3b578182fd5b50508035926020909101359150565b6000815180845260208085019450808401835b83811015612c7957815187529582019590820190600101612c5d565b509495945050505050565b60008151808452815b81811015612ca957602081850181015186830182015201612c8d565b81811115612cba5782602083870101525b50601f01601f19169290920160200192915050565b6001600160a01b0391909116815260200190565b6001600160a01b0386811682528516602082015260a060408201819052600090612d0f90830186612c4a565b8281036060840152612d218186612c4a565b8381036080850152612d338186612c84565b9998505050505050505050565b6001600160a01b03868116825285166020820152604081018490526060810183905260a060808201819052600090612d7a90830184612c84565b979650505050505050565b600060018060a01b038516825283602083015260606040830152612dac6060830184612c84565b95945050505050565b6020808252825182820181905260009190848201906040850190845b81811015612df65783516001600160a01b031683529284019291840191600101612dd1565b50909695505050505050565b6000602082526116136020830184612c4a565b600060408252612e286040830185612c4a565b8281036020840152612dac8185612c4a565b901515815260200190565b6000602082526116136020830184612c84565b60208082526034908201527f455243313135353a207472616e7366657220746f206e6f6e20455243313135356040820152732932b1b2b4bb32b91034b6b83632b6b2b73a32b960611b606082015260800190565b6020808252601390820152720eae4d240d8cadccee8d040dad2e6dac2e8c6d606b1b604082015260600190565b60208082526028908201527f455243313135353a204552433131353552656365697665722072656a656374656040820152676420746f6b656e7360c01b606082015260800190565b6020808252602b908201527f455243313135353a2062616c616e636520717565727920666f7220746865207a60408201526a65726f206164647265737360a81b606082015260800190565b60208082526031908201527f455243313135353a2062617463682062616c616e636520717565727920666f7260408201527020746865207a65726f206164647265737360781b606082015260800190565b60208082526026908201527f4f776e61626c653a206e6577206f776e657220697320746865207a65726f206160408201526564647265737360d01b606082015260800190565b6020808252601b908201527f536166654d6174683a206164646974696f6e206f766572666c6f770000000000604082015260600190565b60208082526029908201527f455243313135353a2063616c6c6572206973206e6f74206f776e6572206e6f7260408201526808185c1c1c9bdd995960ba1b606082015260800190565b6020808252600f908201526e0416d6f756e74206d757374203e203608c1b604082015260600190565b60208082526025908201527f455243313135353a207472616e7366657220746f20746865207a65726f206164604082015264647265737360d81b606082015260800190565b60208082526032908201527f455243313135353a207472616e736665722063616c6c6572206973206e6f74206040820152711bdddb995c881b9bdc88185c1c1c9bdd995960721b606082015260800190565b6020808252602d908201527f6f70657261746f723a207a65726f206164647265737320676976656e20666f7260408201526c103732bb9037b832b930ba37b960991b606082015260800190565b60208082526023908201527f455243313135353a206275726e2066726f6d20746865207a65726f206164647260408201526265737360e81b606082015260800190565b6020808252818101527f4f776e61626c653a2063616c6c6572206973206e6f7420746865206f776e6572604082015260600190565b6020808252602c908201527f4e4654312e303a20746f6b656e204665617475726520436f646520697320616c60408201526b07265616479207365742075760a41b606082015260800190565b60208082526039908201527f4d696e746572526f6c653a2063616c6c657220646f6573206e6f74206861766560408201527f20746865204d696e74657220726f6c65206f722061626f766500000000000000606082015260800190565b6020808252601290820152712a2920a729a322a91021a32c1022a92927a960711b604082015260600190565b60208082526029908201527f455243313135353a2073657474696e6720617070726f76616c20737461747573604082015268103337b91039b2b63360b91b606082015260800190565b60208082526029908201527f455243313135353a206163636f756e747320616e6420696473206c656e677468604082015268040dad2e6dac2e8c6d60bb1b606082015260800190565b60208082526028908201527f455243313135353a2069647320616e6420616d6f756e7473206c656e677468206040820152670dad2e6dac2e8c6d60c31b606082015260800190565b60208082526021908201527f455243313135353a206d696e7420746f20746865207a65726f206164647265736040820152607360f81b606082015260800190565b90815260200190565b918252602082015260400190565b6000808335601e19843603018112613425578283fd5b808401803592506001600160401b0383111561343f578384fd5b6020019250503681900382131561279557600080fd5b6040518181016001600160401b038111828210171561347357600080fd5b604052919050565b60006001600160401b03821115613490578081fd5b5060209081020190565b60e01c90565b600060443d10156134b0576109d7565b600481823e6308c379a06134c4825161349a565b146134ce576109d7565b6040513d600319016004823e80513d6001600160401b0381602484011181841117156134fd57505050506109d7565b8284019150815192508083111561351757505050506109d7565b503d8301602083830101111561352f575050506109d7565b601f91909101601f1916810160200160405291505090565b6001600160a01b0381168114610ab357600080fd5b6001600160e01b031981168114610ab357600080fdfe455243313135353a206275726e20616d6f756e7420657863656564732062616c616e6365455243313135353a20696e73756666696369656e742062616c616e636520666f72207472616e73666572a26469706673582212206369fd63c5e6418c03614002f3949ff0ffad1e3da41a2c60f8a67ec97972df8464736f6c6343000609003368747470733a2f2f7473706163652d313235333437303031342e636f732e61702d686f6e676b6f6e672e6d7971636c6f75642e636f6d2f6e66742f636678626a67656e657369732f6d657461646174612f",
    "sourcePath": "d:/GitHub/NFT1.0/contracts/nft1.0/CFXBJGENESIS.sol",
    "compiler": {
        "name": "solc",
        "version": "0.6.9+commit.3e3065ac"
    },
    "functionHashes": {
        "SPONSOR()": "1d073a7a",
        "addItem(address,string)": "36e0271d",
        "addManager(address)": "2d06177a",
        "addMiner(address)": "f3982e5e",
        "balanceOf(address,uint256)": "00fdd58e",
        "balanceOfBatch(address[],uint256[])": "4e1273f4",
        "batchAddItemByAddress(address[],string[])": "f5314c97",
        "batchAddItemByNumber(address,uint256)": "cdf3d474",
        "burn(address,uint256)": "9dc29fac",
        "isApprovedForAll(address,address)": "e985e9c5",
        "isOperator()": "4456eda2",
        "isTokenOwner(address,uint256)": "98f7ceab",
        "managers(address)": "fdff9b4d",
        "miners(address)": "648ec7b9",
        "mint(string)": "d85d3d27",
        "name()": "06fdde03",
        "operator()": "570ca735",
        "owner()": "8da5cb5b",
        "ownerOf(uint256)": "6352211e",
        "ownerOfAddress(uint256,uint256)": "5a7d188a",
        "price()": "a035b1fe",
        "removeManager(address)": "ac18de43",
        "removeMiner(address)": "10242590",
        "renounceOwnership()": "715018a6",
        "safeBatchTransferFrom(address,address,uint256[],uint256[],bytes)": "2eb2c2d6",
        "safeTransferFrom(address,address,uint256,uint256,bytes)": "f242432a",
        "setApprovalForAll(address,bool)": "a22cb465",
        "setBaseUri(string)": "a0bcfc7f",
        "setPrice(uint256)": "91b7f5ed",
        "setTokenFeatureCode(uint256,uint256)": "1d61c7e1",
        "supportsInterface(bytes4)": "01ffc9a7",
        "symbol()": "95d89b41",
        "tokenFeatureCode(uint256)": "f65a60cb",
        "tokenMetaData(uint256)": "af6a3476",
        "tokensOf(address)": "5a3f2672",
        "totalSupply()": "18160ddd",
        "transferOperator(address)": "29605e77",
        "transferOwnership(address)": "f2fde38b",
        "uri(uint256)": "0e89341c",
        "withdrawMain(uint256)": "f6785413"
    },
    "gasEstimates": {
        "creation": {
            "codeDepositCost": "2762800",
            "executionCost": "infinite",
            "totalCost": "infinite"
        },
        "external": {
            "SPONSOR()": "320",
            "addItem(address,string)": "infinite",
            "addManager(address)": "22228",
            "addMiner(address)": "22138",
            "balanceOf(address,uint256)": "infinite",
            "balanceOfBatch(address[],uint256[])": "infinite",
            "batchAddItemByAddress(address[],string[])": "infinite",
            "batchAddItemByNumber(address,uint256)": "infinite",
            "burn(address,uint256)": "infinite",
            "isApprovedForAll(address,address)": "infinite",
            "isOperator()": "1203",
            "isTokenOwner(address,uint256)": "infinite",
            "managers(address)": "1401",
            "miners(address)": "1380",
            "mint(string)": "infinite",
            "name()": "infinite",
            "operator()": "1204",
            "owner()": "1116",
            "ownerOf(uint256)": "infinite",
            "ownerOfAddress(uint256,uint256)": "2196",
            "price()": "1073",
            "removeManager(address)": "22199",
            "removeMiner(address)": "22223",
            "renounceOwnership()": "24334",
            "safeBatchTransferFrom(address,address,uint256[],uint256[],bytes)": "infinite",
            "safeTransferFrom(address,address,uint256,uint256,bytes)": "infinite",
            "setApprovalForAll(address,bool)": "infinite",
            "setBaseUri(string)": "infinite",
            "setPrice(uint256)": "21171",
            "setTokenFeatureCode(uint256,uint256)": "22243",
            "supportsInterface(bytes4)": "1363",
            "symbol()": "infinite",
            "tokenFeatureCode(uint256)": "1259",
            "tokenMetaData(uint256)": "infinite",
            "tokensOf(address)": "infinite",
            "totalSupply()": "1075",
            "transferOperator(address)": "23779",
            "transferOwnership(address)": "24577",
            "uri(uint256)": "infinite",
            "withdrawMain(uint256)": "infinite"
        },
        "internal": {
            "_addTokenToAllTokensEnumeration(uint256)": "60926",
            "_addTokenToOwnerEnumeration(address,uint256)": "145424",
            "_removeTokenFromAllTokensEnumeration(uint256)": "infinite",
            "_removeTokenFromOwnerEnumeration(address,uint256)": "infinite",
            "_tsMint(address,string memory)": "infinite",
            "transferMain(address,uint256)": "infinite"
        }
    }
}