{
    "contractName": "CFXBJGENESIS",
    "abi": [
        {
            "inputs": [],
            "stateMutability": "nonpayable",
            "type": "constructor"
        },
        {
            "anonymous": false,
            "inputs": [
                {
                    "indexed": true,
                    "internalType": "address",
                    "name": "account",
                    "type": "address"
                },
                {
                    "indexed": true,
                    "internalType": "address",
                    "name": "operator",
                    "type": "address"
                },
                {
                    "indexed": false,
                    "internalType": "bool",
                    "name": "approved",
                    "type": "bool"
                }
            ],
            "name": "ApprovalForAll",
            "type": "event"
        },
        {
            "anonymous": false,
            "inputs": [
                {
                    "indexed": false,
                    "internalType": "address",
                    "name": "_onwer",
                    "type": "address"
                },
                {
                    "indexed": false,
                    "internalType": "uint256",
                    "name": "_tokenId",
                    "type": "uint256"
                },
                {
                    "indexed": false,
                    "internalType": "string",
                    "name": "metedate",
                    "type": "string"
                }
            ],
            "name": "CFXBJGENESISMint",
            "type": "event"
        },
        {
            "anonymous": false,
            "inputs": [
                {
                    "indexed": true,
                    "internalType": "address",
                    "name": "previousOperator",
                    "type": "address"
                },
                {
                    "indexed": true,
                    "internalType": "address",
                    "name": "newOperator",
                    "type": "address"
                }
            ],
            "name": "OperatorTransferred",
            "type": "event"
        },
        {
            "anonymous": false,
            "inputs": [
                {
                    "indexed": true,
                    "internalType": "address",
                    "name": "previousOwner",
                    "type": "address"
                },
                {
                    "indexed": true,
                    "internalType": "address",
                    "name": "newOwner",
                    "type": "address"
                }
            ],
            "name": "OwnershipTransferred",
            "type": "event"
        },
        {
            "anonymous": false,
            "inputs": [
                {
                    "indexed": true,
                    "internalType": "address",
                    "name": "operator",
                    "type": "address"
                },
                {
                    "indexed": true,
                    "internalType": "address",
                    "name": "from",
                    "type": "address"
                },
                {
                    "indexed": true,
                    "internalType": "address",
                    "name": "to",
                    "type": "address"
                },
                {
                    "indexed": false,
                    "internalType": "uint256[]",
                    "name": "ids",
                    "type": "uint256[]"
                },
                {
                    "indexed": false,
                    "internalType": "uint256[]",
                    "name": "values",
                    "type": "uint256[]"
                }
            ],
            "name": "TransferBatch",
            "type": "event"
        },
        {
            "anonymous": false,
            "inputs": [
                {
                    "indexed": true,
                    "internalType": "address",
                    "name": "operator",
                    "type": "address"
                },
                {
                    "indexed": true,
                    "internalType": "address",
                    "name": "from",
                    "type": "address"
                },
                {
                    "indexed": true,
                    "internalType": "address",
                    "name": "to",
                    "type": "address"
                },
                {
                    "indexed": false,
                    "internalType": "uint256",
                    "name": "id",
                    "type": "uint256"
                },
                {
                    "indexed": false,
                    "internalType": "uint256",
                    "name": "value",
                    "type": "uint256"
                }
            ],
            "name": "TransferSingle",
            "type": "event"
        },
        {
            "anonymous": false,
            "inputs": [
                {
                    "indexed": false,
                    "internalType": "string",
                    "name": "value",
                    "type": "string"
                },
                {
                    "indexed": true,
                    "internalType": "uint256",
                    "name": "id",
                    "type": "uint256"
                }
            ],
            "name": "URI",
            "type": "event"
        },
        {
            "inputs": [],
            "name": "SPONSOR",
            "outputs": [
                {
                    "internalType": "contract SponsorWhitelistControl",
                    "name": "",
                    "type": "address"
                }
            ],
            "stateMutability": "view",
            "type": "function"
        },
        {
            "inputs": [
                {
                    "internalType": "address",
                    "name": "_to",
                    "type": "address"
                },
                {
                    "internalType": "string",
                    "name": "_metadateUri",
                    "type": "string"
                }
            ],
            "name": "addItem",
            "outputs": [],
            "stateMutability": "nonpayable",
            "type": "function"
        },
        {
            "inputs": [
                {
                    "internalType": "address",
                    "name": "_manager",
                    "type": "address"
                }
            ],
            "name": "addManager",
            "outputs": [],
            "stateMutability": "nonpayable",
            "type": "function"
        },
        {
            "inputs": [
                {
                    "internalType": "address",
                    "name": "_miner",
                    "type": "address"
                }
            ],
            "name": "addMiner",
            "outputs": [],
            "stateMutability": "nonpayable",
            "type": "function"
        },
        {
            "inputs": [
                {
                    "internalType": "address",
                    "name": "account",
                    "type": "address"
                },
                {
                    "internalType": "uint256",
                    "name": "id",
                    "type": "uint256"
                }
            ],
            "name": "balanceOf",
            "outputs": [
                {
                    "internalType": "uint256",
                    "name": "",
                    "type": "uint256"
                }
            ],
            "stateMutability": "view",
            "type": "function"
        },
        {
            "inputs": [
                {
                    "internalType": "address[]",
                    "name": "accounts",
                    "type": "address[]"
                },
                {
                    "internalType": "uint256[]",
                    "name": "ids",
                    "type": "uint256[]"
                }
            ],
            "name": "balanceOfBatch",
            "outputs": [
                {
                    "internalType": "uint256[]",
                    "name": "",
                    "type": "uint256[]"
                }
            ],
            "stateMutability": "view",
            "type": "function"
        },
        {
            "inputs": [
                {
                    "internalType": "address[]",
                    "name": "_initialOwners",
                    "type": "address[]"
                },
                {
                    "internalType": "string[]",
                    "name": "_uris",
                    "type": "string[]"
                }
            ],
            "name": "batchAddItemByAddress",
            "outputs": [],
            "stateMutability": "nonpayable",
            "type": "function"
        },
        {
            "inputs": [
                {
                    "internalType": "address",
                    "name": "_to",
                    "type": "address"
                },
                {
                    "internalType": "uint256",
                    "name": "_amount",
                    "type": "uint256"
                }
            ],
            "name": "batchAddItemByNumber",
            "outputs": [],
            "stateMutability": "nonpayable",
            "type": "function"
        },
        {
            "inputs": [
                {
                    "internalType": "address",
                    "name": "owner",
                    "type": "address"
                },
                {
                    "internalType": "uint256",
                    "name": "tokenId",
                    "type": "uint256"
                }
            ],
            "name": "burn",
            "outputs": [],
            "stateMutability": "nonpayable",
            "type": "function"
        },
        {
            "inputs": [
                {
                    "internalType": "address",
                    "name": "account",
                    "type": "address"
                },
                {
                    "internalType": "address",
                    "name": "operator",
                    "type": "address"
                }
            ],
            "name": "isApprovedForAll",
            "outputs": [
                {
                    "internalType": "bool",
                    "name": "",
                    "type": "bool"
                }
            ],
            "stateMutability": "view",
            "type": "function"
        },
        {
            "inputs": [],
            "name": "isOperator",
            "outputs": [
                {
                    "internalType": "bool",
                    "name": "",
                    "type": "bool"
                }
            ],
            "stateMutability": "view",
            "type": "function"
        },
        {
            "inputs": [
                {
                    "internalType": "address",
                    "name": "_owner",
                    "type": "address"
                },
                {
                    "internalType": "uint256",
                    "name": "_id",
                    "type": "uint256"
                }
            ],
            "name": "isTokenOwner",
            "outputs": [
                {
                    "internalType": "bool",
                    "name": "",
                    "type": "bool"
                }
            ],
            "stateMutability": "view",
            "type": "function"
        },
        {
            "inputs": [
                {
                    "internalType": "address",
                    "name": "",
                    "type": "address"
                }
            ],
            "name": "managers",
            "outputs": [
                {
                    "internalType": "bool",
                    "name": "",
                    "type": "bool"
                }
            ],
            "stateMutability": "view",
            "type": "function"
        },
        {
            "inputs": [
                {
                    "internalType": "address",
                    "name": "",
                    "type": "address"
                }
            ],
            "name": "miners",
            "outputs": [
                {
                    "internalType": "bool",
                    "name": "",
                    "type": "bool"
                }
            ],
            "stateMutability": "view",
            "type": "function"
        },
        {
            "inputs": [
                {
                    "internalType": "string",
                    "name": "_metadateUri",
                    "type": "string"
                }
            ],
            "name": "mint",
            "outputs": [],
            "stateMutability": "nonpayable",
            "type": "function"
        },
        {
            "inputs": [],
            "name": "name",
            "outputs": [
                {
                    "internalType": "string",
                    "name": "",
                    "type": "string"
                }
            ],
            "stateMutability": "view",
            "type": "function"
        },
        {
            "inputs": [],
            "name": "operator",
            "outputs": [
                {
                    "internalType": "address",
                    "name": "",
                    "type": "address"
                }
            ],
            "stateMutability": "view",
            "type": "function"
        },
        {
            "inputs": [],
            "name": "owner",
            "outputs": [
                {
                    "internalType": "address",
                    "name": "",
                    "type": "address"
                }
            ],
            "stateMutability": "view",
            "type": "function"
        },
        {
            "inputs": [
                {
                    "internalType": "uint256",
                    "name": "_id",
                    "type": "uint256"
                }
            ],
            "name": "ownerOf",
            "outputs": [
                {
                    "internalType": "address[]",
                    "name": "",
                    "type": "address[]"
                }
            ],
            "stateMutability": "view",
            "type": "function"
        },
        {
            "inputs": [
                {
                    "internalType": "uint256",
                    "name": "",
                    "type": "uint256"
                },
                {
                    "internalType": "uint256",
                    "name": "",
                    "type": "uint256"
                }
            ],
            "name": "ownerOfAddress",
            "outputs": [
                {
                    "internalType": "address",
                    "name": "",
                    "type": "address"
                }
            ],
            "stateMutability": "view",
            "type": "function"
        },
        {
            "inputs": [],
            "name": "price",
            "outputs": [
                {
                    "internalType": "uint256",
                    "name": "",
                    "type": "uint256"
                }
            ],
            "stateMutability": "view",
            "type": "function"
        },
        {
            "inputs": [
                {
                    "internalType": "address",
                    "name": "_manager",
                    "type": "address"
                }
            ],
            "name": "removeManager",
            "outputs": [],
            "stateMutability": "nonpayable",
            "type": "function"
        },
        {
            "inputs": [
                {
                    "internalType": "address",
                    "name": "_miner",
                    "type": "address"
                }
            ],
            "name": "removeMiner",
            "outputs": [],
            "stateMutability": "nonpayable",
            "type": "function"
        },
        {
            "inputs": [],
            "name": "renounceOwnership",
            "outputs": [],
            "stateMutability": "nonpayable",
            "type": "function"
        },
        {
            "inputs": [
                {
                    "internalType": "address",
                    "name": "from",
                    "type": "address"
                },
                {
                    "internalType": "address",
                    "name": "to",
                    "type": "address"
                },
                {
                    "internalType": "uint256[]",
                    "name": "ids",
                    "type": "uint256[]"
                },
                {
                    "internalType": "uint256[]",
                    "name": "amounts",
                    "type": "uint256[]"
                },
                {
                    "internalType": "bytes",
                    "name": "data",
                    "type": "bytes"
                }
            ],
            "name": "safeBatchTransferFrom",
            "outputs": [],
            "stateMutability": "nonpayable",
            "type": "function"
        },
        {
            "inputs": [
                {
                    "internalType": "address",
                    "name": "from",
                    "type": "address"
                },
                {
                    "internalType": "address",
                    "name": "to",
                    "type": "address"
                },
                {
                    "internalType": "uint256",
                    "name": "tokenId",
                    "type": "uint256"
                },
                {
                    "internalType": "uint256",
                    "name": "amount",
                    "type": "uint256"
                },
                {
                    "internalType": "bytes",
                    "name": "data",
                    "type": "bytes"
                }
            ],
            "name": "safeTransferFrom",
            "outputs": [],
            "stateMutability": "nonpayable",
            "type": "function"
        },
        {
            "inputs": [
                {
                    "internalType": "address",
                    "name": "operator",
                    "type": "address"
                },
                {
                    "internalType": "bool",
                    "name": "approved",
                    "type": "bool"
                }
            ],
            "name": "setApprovalForAll",
            "outputs": [],
            "stateMutability": "nonpayable",
            "type": "function"
        },
        {
            "inputs": [
                {
                    "internalType": "string",
                    "name": "_baseUri",
                    "type": "string"
                }
            ],
            "name": "setBaseUri",
            "outputs": [],
            "stateMutability": "nonpayable",
            "type": "function"
        },
        {
            "inputs": [
                {
                    "internalType": "uint256",
                    "name": "_price",
                    "type": "uint256"
                }
            ],
            "name": "setPrice",
            "outputs": [],
            "stateMutability": "nonpayable",
            "type": "function"
        },
        {
            "inputs": [
                {
                    "internalType": "bytes4",
                    "name": "interfaceId",
                    "type": "bytes4"
                }
            ],
            "name": "supportsInterface",
            "outputs": [
                {
                    "internalType": "bool",
                    "name": "",
                    "type": "bool"
                }
            ],
            "stateMutability": "view",
            "type": "function"
        },
        {
            "inputs": [],
            "name": "symbol",
            "outputs": [
                {
                    "internalType": "string",
                    "name": "",
                    "type": "string"
                }
            ],
            "stateMutability": "view",
            "type": "function"
        },
        {
            "inputs": [
                {
                    "internalType": "uint256",
                    "name": "",
                    "type": "uint256"
                }
            ],
            "name": "tokenMetaDate",
            "outputs": [
                {
                    "internalType": "string",
                    "name": "",
                    "type": "string"
                }
            ],
            "stateMutability": "view",
            "type": "function"
        },
        {
            "inputs": [
                {
                    "internalType": "address",
                    "name": "_owner",
                    "type": "address"
                }
            ],
            "name": "tokensOf",
            "outputs": [
                {
                    "internalType": "uint256[]",
                    "name": "_tokens",
                    "type": "uint256[]"
                }
            ],
            "stateMutability": "view",
            "type": "function"
        },
        {
            "inputs": [],
            "name": "totalSupply",
            "outputs": [
                {
                    "internalType": "uint256",
                    "name": "",
                    "type": "uint256"
                }
            ],
            "stateMutability": "view",
            "type": "function"
        },
        {
            "inputs": [
                {
                    "internalType": "address",
                    "name": "newOperator_",
                    "type": "address"
                }
            ],
            "name": "transferOperator",
            "outputs": [],
            "stateMutability": "nonpayable",
            "type": "function"
        },
        {
            "inputs": [
                {
                    "internalType": "address",
                    "name": "newOwner",
                    "type": "address"
                }
            ],
            "name": "transferOwnership",
            "outputs": [],
            "stateMutability": "nonpayable",
            "type": "function"
        },
        {
            "inputs": [
                {
                    "internalType": "uint256",
                    "name": "_id",
                    "type": "uint256"
                }
            ],
            "name": "uri",
            "outputs": [
                {
                    "internalType": "string",
                    "name": "",
                    "type": "string"
                }
            ],
            "stateMutability": "view",
            "type": "function"
        },
        {
            "inputs": [
                {
                    "internalType": "uint256",
                    "name": "_amount",
                    "type": "uint256"
                }
            ],
            "name": "withdrawMain",
            "outputs": [],
            "stateMutability": "nonpayable",
            "type": "function"
        },
        {
            "stateMutability": "payable",
            "type": "receive"
        }
    ],
    "bytecode": "0x60c0604052600c60808190526b434658424a47454e4553495360a01b60a09081526200002f91600991906200032a565b5060408051808201909152600c8082526b434658424a47454e4553495360a01b60209092019182526200006591600a916200032a565b50674563918244f400006012553480156200007f57600080fd5b506040518060800160405280605181526020016200393560519139620000b56301ffc9a760e01b6001600160e01b03620002b116565b620000c9816001600160e01b036200030c16565b620000e4636cdb3d1360e11b6001600160e01b03620002b116565b620000ff6303a24d0760e21b6001600160e01b03620002b116565b506000620001156001600160e01b036200032516565b600480546001600160a01b0319166001600160a01b038316908117909155604051919250906000907f8be0079c531659141344cd1fd0a4f28419497f9722a3daafe3b4186f6b6457e0908290a350620001766001600160e01b036200032516565b600580546001600160a01b0319166001600160a01b0392831617908190556040519116906000907f74da04524d50c64947f5dd5381ef1a4dca5cba8ed1d816243f9e48aa0b5617ed908290a360405180608001604052806051815260200162003935605191398051620001f291600f916020909101906200032a565b50604080516001808252818301909252606091602080830190803683370190505090506000816000815181106200022557fe5b6001600160a01b0390921660209283029190910190910152604051630809469f60e11b8152730888000000000000000000000000000000000001906310128d3e9062000276908490600401620003cc565b600060405180830381600087803b1580156200029157600080fd5b505af1158015620002a6573d6000803e3d6000fd5b505050505062000452565b6001600160e01b03198082161415620002e75760405162461bcd60e51b8152600401620002de906200041b565b60405180910390fd5b6001600160e01b0319166000908152602081905260409020805460ff19166001179055565b8051620003219060039060208401906200032a565b5050565b335b90565b828054600181600116156101000203166002900490600052602060002090601f016020900481019282601f106200036d57805160ff19168380011785556200039d565b828001600101855582156200039d579182015b828111156200039d57825182559160200191906001019062000380565b50620003ab929150620003af565b5090565b6200032791905b80821115620003ab5760008155600101620003b6565b6020808252825182820181905260009190848201906040850190845b818110156200040f5783516001600160a01b031683529284019291840191600101620003e8565b50909695505050505050565b6020808252601c908201527f4552433136353a20696e76616c696420696e7465726661636520696400000000604082015260600190565b6134d380620004626000396000f3fe6080604052600436106102285760003560e01c80638da5cb5b11610123578063cdf3d474116100ab578063f2fde38b1161006f578063f2fde38b1461064a578063f3982e5e1461066a578063f5314c971461068a578063f6785413146106aa578063fdff9b4d146106ca5761022f565b8063cdf3d474146105aa578063d68a513c146105ca578063d85d3d27146105ea578063e985e9c51461060a578063f242432a1461062a5761022f565b80639dc29fac116100f25780639dc29fac14610515578063a035b1fe14610535578063a0bcfc7f1461054a578063a22cb4651461056a578063ac18de431461058a5761022f565b80638da5cb5b146104ab57806391b7f5ed146104c057806395d89b41146104e057806398f7ceab146104f55761022f565b80632eb2c2d6116101b15780635a3f2672116101755780635a3f2672146104095780635a7d188a146104295780636352211e14610449578063648ec7b914610476578063715018a6146104965761022f565b80632eb2c2d61461037257806336e0271d146103925780634456eda2146103b25780634e1273f4146103c7578063570ca735146103f45761022f565b806310242590116101f857806310242590146102d957806318160ddd146102fb5780631d073a7a1461031057806329605e77146103325780632d06177a146103525761022f565b8062fdd58e1461023457806301ffc9a71461026a57806306fdde03146102975780630e89341c146102b95761022f565b3661022f57005b600080fd5b34801561024057600080fd5b5061025461024f36600461295c565b6106ea565b60405161026191906132d5565b60405180910390f35b34801561027657600080fd5b5061028a610285366004612aa5565b610746565b6040516102619190612d40565b3480156102a357600080fd5b506102ac610769565b6040516102619190612d4b565b3480156102c557600080fd5b506102ac6102d4366004612b17565b6107f7565b3480156102e557600080fd5b506102f96102f4366004612778565b610927565b005b34801561030757600080fd5b5061025461097d565b34801561031c57600080fd5b50610325610984565b6040516102619190612bd5565b34801561033e57600080fd5b506102f961034d366004612778565b61099c565b34801561035e57600080fd5b506102f961036d366004612778565b6109dd565b34801561037e57600080fd5b506102f961038d3660046127c7565b610a36565b34801561039e57600080fd5b506102f96103ad36600461290f565b610ac5565b3480156103be57600080fd5b5061028a610b18565b3480156103d357600080fd5b506103e76103e23660046129ee565b610b3e565b6040516102619190612d08565b34801561040057600080fd5b50610325610c7d565b34801561041557600080fd5b506103e7610424366004612778565b610c8c565b34801561043557600080fd5b50610325610444366004612b2f565b610cf8565b34801561045557600080fd5b50610469610464366004612b17565b610d2d565b6040516102619190612cbb565b34801561048257600080fd5b5061028a610491366004612778565b610d98565b3480156104a257600080fd5b506102f9610dad565b3480156104b757600080fd5b50610325610e2c565b3480156104cc57600080fd5b506102f96104db366004612b17565b610e3b565b3480156104ec57600080fd5b506102ac610e75565b34801561050157600080fd5b5061028a61051036600461295c565b610ed0565b34801561052157600080fd5b506102f961053036600461295c565b610ee5565b34801561054157600080fd5b50610254610f44565b34801561055657600080fd5b506102f9610565366004612add565b610f4a565b34801561057657600080fd5b506102f96105853660046128d4565b610f9b565b34801561059657600080fd5b506102f96105a5366004612778565b611069565b3480156105b657600080fd5b506102f96105c536600461295c565b6110bf565b3480156105d657600080fd5b506102ac6105e5366004612b17565b611168565b3480156105f657600080fd5b506102f9610605366004612add565b6111d0565b34801561061657600080fd5b5061028a610625366004612793565b61120f565b34801561063657600080fd5b506102f9610645366004612870565b61123d565b34801561065657600080fd5b506102f9610665366004612778565b611285565b34801561067657600080fd5b506102f9610685366004612778565b61133c565b34801561069657600080fd5b506102f96106a5366004612986565b611395565b3480156106b657600080fd5b506102f96106c5366004612b17565b611489565b3480156106d657600080fd5b5061028a6106e5366004612778565b6114c8565b60006001600160a01b03831661071b5760405162461bcd60e51b815260040161071290612e27565b60405180910390fd5b5060008181526001602090815260408083206001600160a01b03861684529091529020545b92915050565b6001600160e01b0319811660009081526020819052604090205460ff165b919050565b6009805460408051602060026001851615610100026000190190941693909304601f810184900484028201840190925281815292918301828280156107ef5780601f106107c4576101008083540402835291602001916107ef565b820191906000526020600020905b8154815290600101906020018083116107d257829003601f168201915b505050505081565b600f805460408051602060026001851615610100026000190190941693909304601f810184900484028201840190925281815260609361074093919290918301828280156108865780601f1061085b57610100808354040283529160200191610886565b820191906000526020600020905b81548152906001019060200180831161086957829003601f168201915b5050506000868152601160209081526040918290208054835160026001831615610100026000190190921691909104601f81018490048402820184019094528381529450925083018282801561091d5780601f106108f25761010080835404028352916020019161091d565b820191906000526020600020905b81548152906001019060200180831161090057829003601f168201915b50505050506114dd565b61092f611520565b6004546001600160a01b0390811691161461095c5760405162461bcd60e51b8152600401610712906130d9565b6001600160a01b03166000908152600660205260409020805460ff19169055565b600d545b90565b73088800000000000000000000000000000000000181565b6109a4611520565b6004546001600160a01b039081169116146109d15760405162461bcd60e51b8152600401610712906130d9565b6109da81611524565b50565b6109e5611520565b6004546001600160a01b03908116911614610a125760405162461bcd60e51b8152600401610712906130d9565b6001600160a01b03166000908152600760205260409020805460ff19166001179055565b610a4385858585856115a2565b60005b8351811015610abd576000848281518110610a5d57fe5b602002602001015190506000848381518110610a7557fe5b6020026020010151905060008111610a9f5760405162461bcd60e51b815260040161071290612f89565b610aa988836117b4565b610ab387836118c7565b5050600101610a46565b505050505050565b60066000610ad1611520565b6001600160a01b0316815260208101919091526040016000205460ff16610b0a5760405162461bcd60e51b815260040161071290613131565b610b148282611974565b5050565b6005546000906001600160a01b0316610b2f611520565b6001600160a01b031614905090565b60608151835114610b615760405162461bcd60e51b815260040161071290613203565b606083516001600160401b0381118015610b7a57600080fd5b50604051908082528060200260200182016040528015610ba4578160200160208202803683370190505b50905060005b8451811015610c755760006001600160a01b0316858281518110610bca57fe5b60200260200101516001600160a01b03161415610bf95760405162461bcd60e51b815260040161071290612e72565b60016000858381518110610c0957fe5b602002602001015181526020019081526020016000206000868381518110610c2d57fe5b60200260200101516001600160a01b03166001600160a01b0316815260200190815260200160002054828281518110610c6257fe5b6020908102919091010152600101610baa565b509392505050565b6005546001600160a01b031690565b6001600160a01b0381166000908152600b6020908152604091829020805483518184028101840190945280845260609392830182828015610cec57602002820191906000526020600020905b815481526020019060010190808311610cd8575b50505050509050919050565b60106020528160005260406000208181548110610d1157fe5b6000918252602090912001546001600160a01b03169150829050565b600081815260106020908152604091829020805483518184028101840190945280845260609392830182828015610cec57602002820191906000526020600020905b81546001600160a01b03168152600190910190602001808311610d6f5750505050509050919050565b60066020526000908152604090205460ff1681565b610db5611520565b6004546001600160a01b03908116911614610de25760405162461bcd60e51b8152600401610712906130d9565b6004546040516000916001600160a01b0316907f8be0079c531659141344cd1fd0a4f28419497f9722a3daafe3b4186f6b6457e0908390a3600480546001600160a01b0319169055565b6004546001600160a01b031690565b610e43611520565b6004546001600160a01b03908116911614610e705760405162461bcd60e51b8152600401610712906130d9565b601255565b600a805460408051602060026001851615610100026000190190941693909304601f810184900484028201840190925281815292918301828280156107ef5780601f106107c4576101008083540402835291602001916107ef565b600080610edd84846106ea565b119392505050565b610eef8282610ed0565b610f0b5760405162461bcd60e51b81526004016107129061310e565b610f1782826001611ab2565b610f2182826117b4565b610f2c6000826118c7565b6000818152600c6020526040812055610b1481611bce565b60125481565b610f52611520565b6004546001600160a01b03908116911614610f7f5760405162461bcd60e51b8152600401610712906130d9565b610f8881611c82565b8051610b1490600f9060208401906125ab565b816001600160a01b0316610fad611520565b6001600160a01b03161415610fd45760405162461bcd60e51b8152600401610712906131ba565b8060026000610fe1611520565b6001600160a01b03908116825260208083019390935260409182016000908120918716808252919093529120805460ff191692151592909217909155611025611520565b6001600160a01b03167f17307eab39ab6107e8899845ad3d59bd9653f200f220920489ca2b5937696c318360405161105d9190612d40565b60405180910390a35050565b611071611520565b6004546001600160a01b0390811691161461109e5760405162461bcd60e51b8152600401610712906130d9565b6001600160a01b03166000908152600760205260409020805460ff19169055565b600660006110cb611520565b6001600160a01b0316815260208101919091526040016000205460ff166111045760405162461bcd60e51b815260040161071290613131565b60006111106008611c95565b600101905060005b828110156111625761115a84611155611132848601611c99565b60405180604001604052806005815260200164173539b7b760d91b8152506114dd565b611974565b600101611118565b50505050565b60116020908152600091825260409182902080548351601f6002600019610100600186161502019093169290920491820184900484028101840190945280845290918301828280156107ef5780601f106107c4576101008083540402835291602001916107ef565b6111d8611520565b6004546001600160a01b039081169116146112055760405162461bcd60e51b8152600401610712906130d9565b6109da3382611974565b6001600160a01b03918216600090815260026020908152604080832093909416825291909152205460ff1690565b6000821161125d5760405162461bcd60e51b815260040161071290612f89565b61126a8585858585611d70565b61127485846117b4565b61127e84846118c7565b5050505050565b61128d611520565b6004546001600160a01b039081169116146112ba5760405162461bcd60e51b8152600401610712906130d9565b6001600160a01b0381166112e05760405162461bcd60e51b815260040161071290612ec3565b6004546040516001600160a01b038084169216907f8be0079c531659141344cd1fd0a4f28419497f9722a3daafe3b4186f6b6457e090600090a3600480546001600160a01b0319166001600160a01b0392909216919091179055565b611344611520565b6004546001600160a01b039081169116146113715760405162461bcd60e51b8152600401610712906130d9565b6001600160a01b03166000908152600660205260409020805460ff19166001179055565b600660006113a1611520565b6001600160a01b0316815260208101919091526040016000205460ff166113da5760405162461bcd60e51b815260040161071290613131565b8281146113f95760405162461bcd60e51b815260040161071290612db2565b8060005b81811015610abd5761148186868381811061141457fe5b90506020020160208101906114299190612778565b85858481811061143557fe5b905060200281019061144791906132ec565b8080601f01602080910402602001604051908101604052809392919081815260200183838082843760009201919091525061197492505050565b6001016113fd565b611491611520565b6004546001600160a01b039081169116146114be5760405162461bcd60e51b8152600401610712906130d9565b6109da3382611f0a565b60076020526000908152604090205460ff1681565b60606115198383604051806020016040528060008152506040518060200160405280600081525060405180602001604052806000815250611f8b565b9392505050565b3390565b6001600160a01b03811661154a5760405162461bcd60e51b815260040161071290613049565b6040516001600160a01b038216906000907f74da04524d50c64947f5dd5381ef1a4dca5cba8ed1d816243f9e48aa0b5617ed908290a3600580546001600160a01b0319166001600160a01b0392909216919091179055565b81518351146115c35760405162461bcd60e51b81526004016107129061324c565b6001600160a01b0384166115e95760405162461bcd60e51b815260040161071290612fb2565b6115f1611520565b6001600160a01b0316856001600160a01b03161480611617575061161785610625611520565b6116335760405162461bcd60e51b815260040161071290612ff7565b600061163d611520565b905061164d818787878787610abd565b60005b845181101561174e57600085828151811061166757fe5b60200260200101519050600085838151811061167f57fe5b602002602001015190506116ec816040518060600160405280602a8152602001613474602a91396001600086815260200190815260200160002060008d6001600160a01b03166001600160a01b03168152602001908152602001600020546121af9092919063ffffffff16565b60008381526001602090815260408083206001600160a01b038e811685529252808320939093558a168152205461172390826121db565b60009283526001602081815260408086206001600160a01b038d168752909152909320555001611650565b50846001600160a01b0316866001600160a01b0316826001600160a01b03167f4a39dc06d4c0dbc64b70af90fd698a233a518aa5d07e595d983b8c0526c8f7fb878760405161179e929190612d1b565b60405180910390a4610abd818787878787612200565b6001600160a01b0382166000908152600b60205260408120546117de90600163ffffffff61231716565b6000838152600c6020526040902054909150808214611879576001600160a01b0384166000908152600b6020526040812080548490811061181b57fe5b9060005260206000200154905080600b6000876001600160a01b03166001600160a01b03168152602001908152602001600020838154811061185957fe5b6000918252602080832090910192909255918252600c9052604090208190555b6001600160a01b0384166000908152600b6020526040902080548061189a57fe5b600082815260208082208301600019908101839055909201909255938152600c9093525050604081205550565b6001600160a01b0382166000908152600b602090815260408083208054858552600c8452828520819055600181018255908452828420018490558383526010909152902080541561193f578080548061191c57fe5b600082815260209020810160001990810180546001600160a01b03191690550190555b8054600181018255600091825260209091200180546001600160a01b0319166001600160a01b03939093169290921790915550565b61197e6008612359565b600061198a6008611c95565b600081815260116020908152604090912084519293506119ae9290918501906125ab565b50611a5f83826001611a5a600f8054600181600116156101000203166002900480601f016020809104026020016040519081016040528092919081815260200182805460018160011615610100020316600290048015611a4f5780601f10611a2457610100808354040283529160200191611a4f565b820191906000526020600020905b815481529060010190602001808311611a3257829003601f168201915b5050505050876114dd565b612362565b611a688161244c565b611a7283826118c7565b7f3ac1cf58af8a32f77353095a2fce1376fd59e92da86e0b82b5ac15c8f23a7315838284604051611aa593929190612c8b565b60405180910390a1505050565b6001600160a01b038316611ad85760405162461bcd60e51b815260040161071290613096565b6000611ae2611520565b9050611b1281856000611af487612490565b611afd87612490565b60405180602001604052806000815250610abd565b611b5f826040518060600160405280602481526020016134506024913960008681526001602090815260408083206001600160a01b038b168452909152902054919063ffffffff6121af16565b60008481526001602090815260408083206001600160a01b03808a16808652919093528184209490945551919291908416907fc3d58168c5ae7397731d063d5bbf3d657854427343f4c083240f7aacaa2d0f6290611bc090889088906132de565b60405180910390a450505050565b600d54600090611be590600163ffffffff61231716565b6000838152600e6020526040812054600d8054939450909284908110611c0757fe5b9060005260206000200154905080600d8381548110611c2257fe5b6000918252602080832090910192909255828152600e90915260409020829055600d805480611c4d57fe5b600190038181906000526020600020016000905590556000600e60008681526020019081526020016000208190555050505050565b8051610b149060039060208401906125ab565b5490565b606081611cbe57506040805180820190915260018152600360fc1b6020820152610764565b8160005b8115611cd657600101600a82049150611cc2565b6060816001600160401b0381118015611cee57600080fd5b506040519080825280601f01601f191660200182016040528015611d19576020820181803683370190505b50905060001982015b8515611d6757600a860660300160f81b82828060019003935081518110611d4557fe5b60200101906001600160f81b031916908160001a905350600a86049550611d22565b50949350505050565b6001600160a01b038416611d965760405162461bcd60e51b815260040161071290612fb2565b611d9e611520565b6001600160a01b0316856001600160a01b03161480611dc45750611dc485610625611520565b611de05760405162461bcd60e51b815260040161071290612f40565b6000611dea611520565b9050611e0a818787611dfb88612490565b611e0488612490565b87610abd565b611e57836040518060600160405280602a8152602001613474602a913960008781526001602090815260408083206001600160a01b038d168452909152902054919063ffffffff6121af16565b60008581526001602090815260408083206001600160a01b038b81168552925280832093909355871681522054611e8e90846121db565b60008581526001602090815260408083206001600160a01b03808b168086529190935292819020939093559151909188811691908416907fc3d58168c5ae7397731d063d5bbf3d657854427343f4c083240f7aacaa2d0f6290611ef490899089906132de565b60405180910390a4610abd8187878787876124d4565b6000826001600160a01b031682604051611f2390610981565b60006040518083038185875af1925050503d8060008114611f60576040519150601f19603f3d011682016040523d82523d6000602084013e611f65565b606091505b5050905080611f865760405162461bcd60e51b81526004016107129061318e565b505050565b805182518451865188516060948a948a948a948a948a948a9491909201909201909101016001600160401b0381118015611fc457600080fd5b506040519080825280601f01601f191660200182016040528015611fef576020820181803683370190505b509050806000805b88518110156120485788818151811061200c57fe5b602001015160f81c60f81b83838060010194508151811061202957fe5b60200101906001600160f81b031916908160001a905350600101611ff7565b5060005b875181101561209d5787818151811061206157fe5b602001015160f81c60f81b83838060010194508151811061207e57fe5b60200101906001600160f81b031916908160001a90535060010161204c565b5060005b86518110156120f2578681815181106120b657fe5b602001015160f81c60f81b8383806001019450815181106120d357fe5b60200101906001600160f81b031916908160001a9053506001016120a1565b5060005b85518110156121475785818151811061210b57fe5b602001015160f81c60f81b83838060010194508151811061212857fe5b60200101906001600160f81b031916908160001a9053506001016120f6565b5060005b845181101561219c5784818151811061216057fe5b602001015160f81c60f81b83838060010194508151811061217d57fe5b60200101906001600160f81b031916908160001a90535060010161214b565b50909d9c50505050505050505050505050565b600081848411156121d35760405162461bcd60e51b81526004016107129190612d4b565b505050900390565b6000828201838110156115195760405162461bcd60e51b815260040161071290612f09565b612212846001600160a01b03166125a5565b15610abd5760405163bc197c8160e01b81526001600160a01b0385169063bc197c819061224b9089908990889088908890600401612be9565b602060405180830381600087803b15801561226557600080fd5b505af1925050508015612295575060408051601f3d908101601f1916820190925261229291810190612ac1565b60015b6122de576122a161337d565b806122ac57506122c6565b8060405162461bcd60e51b81526004016107129190612d4b565b60405162461bcd60e51b815260040161071290612d5e565b6001600160e01b0319811663bc197c8160e01b1461230e5760405162461bcd60e51b815260040161071290612ddf565b50505050505050565b600061151983836040518060400160405280601e81526020017f536166654d6174683a207375627472616374696f6e206f766572666c6f7700008152506121af565b80546001019055565b6001600160a01b0384166123885760405162461bcd60e51b815260040161071290613294565b6000612392611520565b90506123a481600087611dfb88612490565b60008481526001602090815260408083206001600160a01b03891684529091529020546123d7908463ffffffff6121db16565b60008581526001602090815260408083206001600160a01b03808b16808652919093528184209490945551908416907fc3d58168c5ae7397731d063d5bbf3d657854427343f4c083240f7aacaa2d0f629061243590899089906132de565b60405180910390a461127e816000878787876124d4565b600d80546000838152600e60205260408120829055600182018355919091527fd7b6990105719101dabeb77144f2a3385c8033acd3af97e9423a695e81ad1eb50155565b6040805160018082528183019092526060918291906020808301908036833701905050905082816000815181106124c357fe5b602090810291909101015292915050565b6124e6846001600160a01b03166125a5565b15610abd5760405163f23a6e6160e01b81526001600160a01b0385169063f23a6e619061251f9089908990889088908890600401612c46565b602060405180830381600087803b15801561253957600080fd5b505af1925050508015612569575060408051601f3d908101601f1916820190925261256691810190612ac1565b60015b612575576122a161337d565b6001600160e01b0319811663f23a6e6160e01b1461230e5760405162461bcd60e51b815260040161071290612ddf565b3b151590565b828054600181600116156101000203166002900490600052602060002090601f016020900481019282601f106125ec57805160ff1916838001178555612619565b82800160010185558215612619579182015b828111156126195782518255916020019190600101906125fe565b50612625929150612629565b5090565b61098191905b80821115612625576000815560010161262f565b80356001600160a01b038116811461074057600080fd5b60008083601f84011261266b578182fd5b5081356001600160401b03811115612681578182fd5b602083019150836020808302850101111561269b57600080fd5b9250929050565b600082601f8301126126b2578081fd5b81356126c56126c082613358565b613332565b8181529150602080830190848101818402860182018710156126e657600080fd5b60005b84811015612705578135845292820192908201906001016126e9565b505050505092915050565b600082601f830112612720578081fd5b81356001600160401b03811115612735578182fd5b612748601f8201601f1916602001613332565b915080825283602082850101111561275f57600080fd5b8060208401602084013760009082016020015292915050565b600060208284031215612789578081fd5b6115198383612643565b600080604083850312156127a5578081fd5b6127af8484612643565b91506127be8460208501612643565b90509250929050565b600080600080600060a086880312156127de578081fd5b85356127e981613424565b945060208601356127f981613424565b935060408601356001600160401b0380821115612814578283fd5b61282089838a016126a2565b94506060880135915080821115612835578283fd5b61284189838a016126a2565b93506080880135915080821115612856578283fd5b5061286388828901612710565b9150509295509295909350565b600080600080600060a08688031215612887578081fd5b6128918787612643565b94506128a08760208801612643565b9350604086013592506060860135915060808601356001600160401b038111156128c8578182fd5b61286388828901612710565b600080604083850312156128e6578182fd5b6128f08484612643565b915060208301358015158114612904578182fd5b809150509250929050565b60008060408385031215612921578182fd5b823561292c81613424565b915060208301356001600160401b03811115612946578182fd5b61295285828601612710565b9150509250929050565b6000806040838503121561296e578182fd5b6129788484612643565b946020939093013593505050565b6000806000806040858703121561299b578384fd5b84356001600160401b03808211156129b1578586fd5b6129bd8883890161265a565b909650945060208701359150808211156129d5578384fd5b506129e28782880161265a565b95989497509550505050565b60008060408385031215612a00578182fd5b82356001600160401b0380821115612a16578384fd5b81850186601f820112612a27578485fd5b80359250612a376126c084613358565b80848252602080830192508084018a828389028701011115612a57578889fd5b8894505b86851015612a8157612a6d8b82612643565b845260019490940193928101928101612a5b565b509096508701359350505080821115612a98578283fd5b50612952858286016126a2565b600060208284031215612ab6578081fd5b813561151981613439565b600060208284031215612ad2578081fd5b815161151981613439565b600060208284031215612aee578081fd5b81356001600160401b03811115612b03578182fd5b612b0f84828501612710565b949350505050565b600060208284031215612b28578081fd5b5035919050565b60008060408385031215612b41578182fd5b50508035926020909101359150565b6000815180845260208085019450808401835b83811015612b7f57815187529582019590820190600101612b63565b509495945050505050565b60008151808452815b81811015612baf57602081850181015186830182015201612b93565b81811115612bc05782602083870101525b50601f01601f19169290920160200192915050565b6001600160a01b0391909116815260200190565b6001600160a01b0386811682528516602082015260a060408201819052600090612c1590830186612b50565b8281036060840152612c278186612b50565b8381036080850152612c398186612b8a565b9998505050505050505050565b6001600160a01b03868116825285166020820152604081018490526060810183905260a060808201819052600090612c8090830184612b8a565b979650505050505050565b600060018060a01b038516825283602083015260606040830152612cb26060830184612b8a565b95945050505050565b6020808252825182820181905260009190848201906040850190845b81811015612cfc5783516001600160a01b031683529284019291840191600101612cd7565b50909695505050505050565b6000602082526115196020830184612b50565b600060408252612d2e6040830185612b50565b8281036020840152612cb28185612b50565b901515815260200190565b6000602082526115196020830184612b8a565b60208082526034908201527f455243313135353a207472616e7366657220746f206e6f6e20455243313135356040820152732932b1b2b4bb32b91034b6b83632b6b2b73a32b960611b606082015260800190565b6020808252601390820152720eae4d240d8cadccee8d040dad2e6dac2e8c6d606b1b604082015260600190565b60208082526028908201527f455243313135353a204552433131353552656365697665722072656a656374656040820152676420746f6b656e7360c01b606082015260800190565b6020808252602b908201527f455243313135353a2062616c616e636520717565727920666f7220746865207a60408201526a65726f206164647265737360a81b606082015260800190565b60208082526031908201527f455243313135353a2062617463682062616c616e636520717565727920666f7260408201527020746865207a65726f206164647265737360781b606082015260800190565b60208082526026908201527f4f776e61626c653a206e6577206f776e657220697320746865207a65726f206160408201526564647265737360d01b606082015260800190565b6020808252601b908201527f536166654d6174683a206164646974696f6e206f766572666c6f770000000000604082015260600190565b60208082526029908201527f455243313135353a2063616c6c6572206973206e6f74206f776e6572206e6f7260408201526808185c1c1c9bdd995960ba1b606082015260800190565b6020808252600f908201526e0416d6f756e74206d757374203e203608c1b604082015260600190565b60208082526025908201527f455243313135353a207472616e7366657220746f20746865207a65726f206164604082015264647265737360d81b606082015260800190565b60208082526032908201527f455243313135353a207472616e736665722063616c6c6572206973206e6f74206040820152711bdddb995c881b9bdc88185c1c1c9bdd995960721b606082015260800190565b6020808252602d908201527f6f70657261746f723a207a65726f206164647265737320676976656e20666f7260408201526c103732bb9037b832b930ba37b960991b606082015260800190565b60208082526023908201527f455243313135353a206275726e2066726f6d20746865207a65726f206164647260408201526265737360e81b606082015260800190565b6020808252818101527f4f776e61626c653a2063616c6c6572206973206e6f7420746865206f776e6572604082015260600190565b6020808252600990820152682737ba1037bbb732b960b91b604082015260600190565b60208082526039908201527f4d696e746572526f6c653a2063616c6c657220646f6573206e6f74206861766560408201527f20746865204d696e74657220726f6c65206f722061626f766500000000000000606082015260800190565b6020808252601290820152712a2920a729a322a91021a32c1022a92927a960711b604082015260600190565b60208082526029908201527f455243313135353a2073657474696e6720617070726f76616c20737461747573604082015268103337b91039b2b63360b91b606082015260800190565b60208082526029908201527f455243313135353a206163636f756e747320616e6420696473206c656e677468604082015268040dad2e6dac2e8c6d60bb1b606082015260800190565b60208082526028908201527f455243313135353a2069647320616e6420616d6f756e7473206c656e677468206040820152670dad2e6dac2e8c6d60c31b606082015260800190565b60208082526021908201527f455243313135353a206d696e7420746f20746865207a65726f206164647265736040820152607360f81b606082015260800190565b90815260200190565b918252602082015260400190565b6000808335601e19843603018112613302578283fd5b808401803592506001600160401b0383111561331c578384fd5b6020019250503681900382131561269b57600080fd5b6040518181016001600160401b038111828210171561335057600080fd5b604052919050565b60006001600160401b0382111561336d578081fd5b5060209081020190565b60e01c90565b600060443d101561338d57610981565b600481823e6308c379a06133a18251613377565b146133ab57610981565b6040513d600319016004823e80513d6001600160401b0381602484011181841117156133da5750505050610981565b828401915081519250808311156133f45750505050610981565b503d8301602083830101111561340c57505050610981565b601f91909101601f1916810160200160405291505090565b6001600160a01b03811681146109da57600080fd5b6001600160e01b0319811681146109da57600080fdfe455243313135353a206275726e20616d6f756e7420657863656564732062616c616e6365455243313135353a20696e73756666696369656e742062616c616e636520666f72207472616e73666572a26469706673582212202956dec99cbb79c3bea5a4f270864a2632e7b79d60275d302f2d55aea438435964736f6c6343000609003368747470733a2f2f7473706163652d313235333437303031342e636f732e61702d686f6e676b6f6e672e6d7971636c6f75642e636f6d2f6e66742f636678626a67656e657369732f6d657461646174612f",
    "sourcePath": "d:/sol/NFT1.0/contracts/nft1.0/CFXBJGENESIS.sol",
    "compiler": {
        "name": "solc",
        "version": "0.6.9+commit.3e3065ac"
    },
    "functionHashes": {
        "SPONSOR()": "1d073a7a",
        "addItem(address,string)": "36e0271d",
        "addManager(address)": "2d06177a",
        "addMiner(address)": "f3982e5e",
        "balanceOf(address,uint256)": "00fdd58e",
        "balanceOfBatch(address[],uint256[])": "4e1273f4",
        "batchAddItemByAddress(address[],string[])": "f5314c97",
        "batchAddItemByNumber(address,uint256)": "cdf3d474",
        "burn(address,uint256)": "9dc29fac",
        "isApprovedForAll(address,address)": "e985e9c5",
        "isOperator()": "4456eda2",
        "isTokenOwner(address,uint256)": "98f7ceab",
        "managers(address)": "fdff9b4d",
        "miners(address)": "648ec7b9",
        "mint(string)": "d85d3d27",
        "name()": "06fdde03",
        "operator()": "570ca735",
        "owner()": "8da5cb5b",
        "ownerOf(uint256)": "6352211e",
        "ownerOfAddress(uint256,uint256)": "5a7d188a",
        "price()": "a035b1fe",
        "removeManager(address)": "ac18de43",
        "removeMiner(address)": "10242590",
        "renounceOwnership()": "715018a6",
        "safeBatchTransferFrom(address,address,uint256[],uint256[],bytes)": "2eb2c2d6",
        "safeTransferFrom(address,address,uint256,uint256,bytes)": "f242432a",
        "setApprovalForAll(address,bool)": "a22cb465",
        "setBaseUri(string)": "a0bcfc7f",
        "setPrice(uint256)": "91b7f5ed",
        "supportsInterface(bytes4)": "01ffc9a7",
        "symbol()": "95d89b41",
        "tokenMetaDate(uint256)": "d68a513c",
        "tokensOf(address)": "5a3f2672",
        "totalSupply()": "18160ddd",
        "transferOperator(address)": "29605e77",
        "transferOwnership(address)": "f2fde38b",
        "uri(uint256)": "0e89341c",
        "withdrawMain(uint256)": "f6785413"
    },
    "gasEstimates": {
        "creation": {
            "codeDepositCost": "2704600",
            "executionCost": "infinite",
            "totalCost": "infinite"
        },
        "external": {
            "SPONSOR()": "342",
            "addItem(address,string)": "infinite",
            "addManager(address)": "22228",
            "addMiner(address)": "22160",
            "balanceOf(address,uint256)": "infinite",
            "balanceOfBatch(address[],uint256[])": "infinite",
            "batchAddItemByAddress(address[],string[])": "infinite",
            "batchAddItemByNumber(address,uint256)": "infinite",
            "burn(address,uint256)": "infinite",
            "isApprovedForAll(address,address)": "infinite",
            "isOperator()": "1203",
            "isTokenOwner(address,uint256)": "infinite",
            "managers(address)": "1401",
            "miners(address)": "1380",
            "mint(string)": "infinite",
            "name()": "infinite",
            "operator()": "1204",
            "owner()": "1116",
            "ownerOf(uint256)": "infinite",
            "ownerOfAddress(uint256,uint256)": "2196",
            "price()": "1095",
            "removeManager(address)": "22221",
            "removeMiner(address)": "22134",
            "renounceOwnership()": "24334",
            "safeBatchTransferFrom(address,address,uint256[],uint256[],bytes)": "infinite",
            "safeTransferFrom(address,address,uint256,uint256,bytes)": "infinite",
            "setApprovalForAll(address,bool)": "infinite",
            "setBaseUri(string)": "infinite",
            "setPrice(uint256)": "21171",
            "supportsInterface(bytes4)": "1363",
            "symbol()": "infinite",
            "tokenMetaDate(uint256)": "infinite",
            "tokensOf(address)": "infinite",
            "totalSupply()": "1097",
            "transferOperator(address)": "23779",
            "transferOwnership(address)": "24488",
            "uri(uint256)": "infinite",
            "withdrawMain(uint256)": "infinite"
        },
        "internal": {
            "_addTokenToAllTokensEnumeration(uint256)": "60926",
            "_addTokenToOwnerEnumeration(address,uint256)": "145424",
            "_removeTokenFromAllTokensEnumeration(uint256)": "infinite",
            "_removeTokenFromOwnerEnumeration(address,uint256)": "infinite",
            "_tsMint(address,string memory)": "infinite",
            "transferMain(address,uint256)": "infinite"
        }
    }
}