{
    "contractName": "CFXBJGENESIS2021",
    "abi": [
        {
            "inputs": [],
            "stateMutability": "nonpayable",
            "type": "constructor"
        },
        {
            "anonymous": false,
            "inputs": [
                {
                    "indexed": true,
                    "internalType": "address",
                    "name": "account",
                    "type": "address"
                },
                {
                    "indexed": true,
                    "internalType": "address",
                    "name": "operator",
                    "type": "address"
                },
                {
                    "indexed": false,
                    "internalType": "bool",
                    "name": "approved",
                    "type": "bool"
                }
            ],
            "name": "ApprovalForAll",
            "type": "event"
        },
        {
            "anonymous": false,
            "inputs": [
                {
                    "indexed": false,
                    "internalType": "address",
                    "name": "_onwer",
                    "type": "address"
                },
                {
                    "indexed": false,
                    "internalType": "uint256",
                    "name": "_tokenId",
                    "type": "uint256"
                },
                {
                    "indexed": false,
                    "internalType": "string",
                    "name": "metedata",
                    "type": "string"
                }
            ],
            "name": "CFXBJGENESISMint",
            "type": "event"
        },
        {
            "anonymous": false,
            "inputs": [
                {
                    "indexed": true,
                    "internalType": "address",
                    "name": "previousOperator",
                    "type": "address"
                },
                {
                    "indexed": true,
                    "internalType": "address",
                    "name": "newOperator",
                    "type": "address"
                }
            ],
            "name": "OperatorTransferred",
            "type": "event"
        },
        {
            "anonymous": false,
            "inputs": [
                {
                    "indexed": true,
                    "internalType": "address",
                    "name": "previousOwner",
                    "type": "address"
                },
                {
                    "indexed": true,
                    "internalType": "address",
                    "name": "newOwner",
                    "type": "address"
                }
            ],
            "name": "OwnershipTransferred",
            "type": "event"
        },
        {
            "anonymous": false,
            "inputs": [
                {
                    "indexed": true,
                    "internalType": "address",
                    "name": "operator",
                    "type": "address"
                },
                {
                    "indexed": true,
                    "internalType": "address",
                    "name": "from",
                    "type": "address"
                },
                {
                    "indexed": true,
                    "internalType": "address",
                    "name": "to",
                    "type": "address"
                },
                {
                    "indexed": false,
                    "internalType": "uint256[]",
                    "name": "ids",
                    "type": "uint256[]"
                },
                {
                    "indexed": false,
                    "internalType": "uint256[]",
                    "name": "values",
                    "type": "uint256[]"
                }
            ],
            "name": "TransferBatch",
            "type": "event"
        },
        {
            "anonymous": false,
            "inputs": [
                {
                    "indexed": true,
                    "internalType": "address",
                    "name": "operator",
                    "type": "address"
                },
                {
                    "indexed": true,
                    "internalType": "address",
                    "name": "from",
                    "type": "address"
                },
                {
                    "indexed": true,
                    "internalType": "address",
                    "name": "to",
                    "type": "address"
                },
                {
                    "indexed": false,
                    "internalType": "uint256",
                    "name": "id",
                    "type": "uint256"
                },
                {
                    "indexed": false,
                    "internalType": "uint256",
                    "name": "value",
                    "type": "uint256"
                }
            ],
            "name": "TransferSingle",
            "type": "event"
        },
        {
            "anonymous": false,
            "inputs": [
                {
                    "indexed": false,
                    "internalType": "string",
                    "name": "value",
                    "type": "string"
                },
                {
                    "indexed": true,
                    "internalType": "uint256",
                    "name": "id",
                    "type": "uint256"
                }
            ],
            "name": "URI",
            "type": "event"
        },
        {
            "inputs": [],
            "name": "SPONSOR",
            "outputs": [
                {
                    "internalType": "contract SponsorWhitelistControl",
                    "name": "",
                    "type": "address"
                }
            ],
            "stateMutability": "view",
            "type": "function"
        },
        {
            "inputs": [
                {
                    "internalType": "address",
                    "name": "_to",
                    "type": "address"
                },
                {
                    "internalType": "string",
                    "name": "_metadataUri",
                    "type": "string"
                }
            ],
            "name": "addItem",
            "outputs": [],
            "stateMutability": "nonpayable",
            "type": "function"
        },
        {
            "inputs": [
                {
                    "internalType": "address",
                    "name": "_manager",
                    "type": "address"
                }
            ],
            "name": "addManager",
            "outputs": [],
            "stateMutability": "nonpayable",
            "type": "function"
        },
        {
            "inputs": [
                {
                    "internalType": "address",
                    "name": "_miner",
                    "type": "address"
                }
            ],
            "name": "addMiner",
            "outputs": [],
            "stateMutability": "nonpayable",
            "type": "function"
        },
        {
            "inputs": [
                {
                    "internalType": "address",
                    "name": "account",
                    "type": "address"
                },
                {
                    "internalType": "uint256",
                    "name": "id",
                    "type": "uint256"
                }
            ],
            "name": "balanceOf",
            "outputs": [
                {
                    "internalType": "uint256",
                    "name": "",
                    "type": "uint256"
                }
            ],
            "stateMutability": "view",
            "type": "function"
        },
        {
            "inputs": [
                {
                    "internalType": "address[]",
                    "name": "accounts",
                    "type": "address[]"
                },
                {
                    "internalType": "uint256[]",
                    "name": "ids",
                    "type": "uint256[]"
                }
            ],
            "name": "balanceOfBatch",
            "outputs": [
                {
                    "internalType": "uint256[]",
                    "name": "",
                    "type": "uint256[]"
                }
            ],
            "stateMutability": "view",
            "type": "function"
        },
        {
            "inputs": [
                {
                    "internalType": "address[]",
                    "name": "_initialOwners",
                    "type": "address[]"
                },
                {
                    "internalType": "string[]",
                    "name": "_uris",
                    "type": "string[]"
                }
            ],
            "name": "batchAddItemByAddress",
            "outputs": [],
            "stateMutability": "nonpayable",
            "type": "function"
        },
        {
            "inputs": [
                {
                    "internalType": "address",
                    "name": "_to",
                    "type": "address"
                },
                {
                    "internalType": "uint256",
                    "name": "_amount",
                    "type": "uint256"
                }
            ],
            "name": "batchAddItemByNumber",
            "outputs": [],
            "stateMutability": "nonpayable",
            "type": "function"
        },
        {
            "inputs": [
                {
                    "internalType": "address",
                    "name": "owner",
                    "type": "address"
                },
                {
                    "internalType": "uint256",
                    "name": "tokenId",
                    "type": "uint256"
                }
            ],
            "name": "burn",
            "outputs": [],
            "stateMutability": "nonpayable",
            "type": "function"
        },
        {
            "inputs": [
                {
                    "internalType": "address",
                    "name": "account",
                    "type": "address"
                },
                {
                    "internalType": "address",
                    "name": "operator",
                    "type": "address"
                }
            ],
            "name": "isApprovedForAll",
            "outputs": [
                {
                    "internalType": "bool",
                    "name": "",
                    "type": "bool"
                }
            ],
            "stateMutability": "view",
            "type": "function"
        },
        {
            "inputs": [],
            "name": "isOperator",
            "outputs": [
                {
                    "internalType": "bool",
                    "name": "",
                    "type": "bool"
                }
            ],
            "stateMutability": "view",
            "type": "function"
        },
        {
            "inputs": [
                {
                    "internalType": "address",
                    "name": "_owner",
                    "type": "address"
                },
                {
                    "internalType": "uint256",
                    "name": "_id",
                    "type": "uint256"
                }
            ],
            "name": "isTokenOwner",
            "outputs": [
                {
                    "internalType": "bool",
                    "name": "",
                    "type": "bool"
                }
            ],
            "stateMutability": "view",
            "type": "function"
        },
        {
            "inputs": [
                {
                    "internalType": "address",
                    "name": "",
                    "type": "address"
                }
            ],
            "name": "managers",
            "outputs": [
                {
                    "internalType": "bool",
                    "name": "",
                    "type": "bool"
                }
            ],
            "stateMutability": "view",
            "type": "function"
        },
        {
            "inputs": [
                {
                    "internalType": "address",
                    "name": "",
                    "type": "address"
                }
            ],
            "name": "miners",
            "outputs": [
                {
                    "internalType": "bool",
                    "name": "",
                    "type": "bool"
                }
            ],
            "stateMutability": "view",
            "type": "function"
        },
        {
            "inputs": [
                {
                    "internalType": "string",
                    "name": "_metadataUri",
                    "type": "string"
                }
            ],
            "name": "mint",
            "outputs": [],
            "stateMutability": "nonpayable",
            "type": "function"
        },
        {
            "inputs": [],
            "name": "name",
            "outputs": [
                {
                    "internalType": "string",
                    "name": "",
                    "type": "string"
                }
            ],
            "stateMutability": "view",
            "type": "function"
        },
        {
            "inputs": [],
            "name": "operator",
            "outputs": [
                {
                    "internalType": "address",
                    "name": "",
                    "type": "address"
                }
            ],
            "stateMutability": "view",
            "type": "function"
        },
        {
            "inputs": [],
            "name": "owner",
            "outputs": [
                {
                    "internalType": "address",
                    "name": "",
                    "type": "address"
                }
            ],
            "stateMutability": "view",
            "type": "function"
        },
        {
            "inputs": [
                {
                    "internalType": "uint256",
                    "name": "_id",
                    "type": "uint256"
                }
            ],
            "name": "ownerOf",
            "outputs": [
                {
                    "internalType": "address[]",
                    "name": "",
                    "type": "address[]"
                }
            ],
            "stateMutability": "view",
            "type": "function"
        },
        {
            "inputs": [
                {
                    "internalType": "uint256",
                    "name": "",
                    "type": "uint256"
                },
                {
                    "internalType": "uint256",
                    "name": "",
                    "type": "uint256"
                }
            ],
            "name": "ownerOfAddress",
            "outputs": [
                {
                    "internalType": "address",
                    "name": "",
                    "type": "address"
                }
            ],
            "stateMutability": "view",
            "type": "function"
        },
        {
            "inputs": [],
            "name": "price",
            "outputs": [
                {
                    "internalType": "uint256",
                    "name": "",
                    "type": "uint256"
                }
            ],
            "stateMutability": "view",
            "type": "function"
        },
        {
            "inputs": [
                {
                    "internalType": "address",
                    "name": "_manager",
                    "type": "address"
                }
            ],
            "name": "removeManager",
            "outputs": [],
            "stateMutability": "nonpayable",
            "type": "function"
        },
        {
            "inputs": [
                {
                    "internalType": "address",
                    "name": "_miner",
                    "type": "address"
                }
            ],
            "name": "removeMiner",
            "outputs": [],
            "stateMutability": "nonpayable",
            "type": "function"
        },
        {
            "inputs": [],
            "name": "renounceOwnership",
            "outputs": [],
            "stateMutability": "nonpayable",
            "type": "function"
        },
        {
            "inputs": [
                {
                    "internalType": "address",
                    "name": "from",
                    "type": "address"
                },
                {
                    "internalType": "address",
                    "name": "to",
                    "type": "address"
                },
                {
                    "internalType": "uint256[]",
                    "name": "ids",
                    "type": "uint256[]"
                },
                {
                    "internalType": "uint256[]",
                    "name": "amounts",
                    "type": "uint256[]"
                },
                {
                    "internalType": "bytes",
                    "name": "data",
                    "type": "bytes"
                }
            ],
            "name": "safeBatchTransferFrom",
            "outputs": [],
            "stateMutability": "nonpayable",
            "type": "function"
        },
        {
            "inputs": [
                {
                    "internalType": "address",
                    "name": "from",
                    "type": "address"
                },
                {
                    "internalType": "address",
                    "name": "to",
                    "type": "address"
                },
                {
                    "internalType": "uint256",
                    "name": "tokenId",
                    "type": "uint256"
                },
                {
                    "internalType": "uint256",
                    "name": "amount",
                    "type": "uint256"
                },
                {
                    "internalType": "bytes",
                    "name": "data",
                    "type": "bytes"
                }
            ],
            "name": "safeTransferFrom",
            "outputs": [],
            "stateMutability": "nonpayable",
            "type": "function"
        },
        {
            "inputs": [
                {
                    "internalType": "address",
                    "name": "operator",
                    "type": "address"
                },
                {
                    "internalType": "bool",
                    "name": "approved",
                    "type": "bool"
                }
            ],
            "name": "setApprovalForAll",
            "outputs": [],
            "stateMutability": "nonpayable",
            "type": "function"
        },
        {
            "inputs": [
                {
                    "internalType": "string",
                    "name": "_baseUri",
                    "type": "string"
                }
            ],
            "name": "setBaseUri",
            "outputs": [],
            "stateMutability": "nonpayable",
            "type": "function"
        },
        {
            "inputs": [
                {
                    "internalType": "uint256",
                    "name": "_price",
                    "type": "uint256"
                }
            ],
            "name": "setPrice",
            "outputs": [],
            "stateMutability": "nonpayable",
            "type": "function"
        },
        {
            "inputs": [
                {
                    "internalType": "bytes4",
                    "name": "interfaceId",
                    "type": "bytes4"
                }
            ],
            "name": "supportsInterface",
            "outputs": [
                {
                    "internalType": "bool",
                    "name": "",
                    "type": "bool"
                }
            ],
            "stateMutability": "view",
            "type": "function"
        },
        {
            "inputs": [],
            "name": "symbol",
            "outputs": [
                {
                    "internalType": "string",
                    "name": "",
                    "type": "string"
                }
            ],
            "stateMutability": "view",
            "type": "function"
        },
        {
            "inputs": [
                {
                    "internalType": "uint256",
                    "name": "",
                    "type": "uint256"
                }
            ],
            "name": "tokenMetaData",
            "outputs": [
                {
                    "internalType": "string",
                    "name": "",
                    "type": "string"
                }
            ],
            "stateMutability": "view",
            "type": "function"
        },
        {
            "inputs": [
                {
                    "internalType": "address",
                    "name": "_owner",
                    "type": "address"
                }
            ],
            "name": "tokensOf",
            "outputs": [
                {
                    "internalType": "uint256[]",
                    "name": "_tokens",
                    "type": "uint256[]"
                }
            ],
            "stateMutability": "view",
            "type": "function"
        },
        {
            "inputs": [],
            "name": "totalSupply",
            "outputs": [
                {
                    "internalType": "uint256",
                    "name": "",
                    "type": "uint256"
                }
            ],
            "stateMutability": "view",
            "type": "function"
        },
        {
            "inputs": [
                {
                    "internalType": "address",
                    "name": "newOperator_",
                    "type": "address"
                }
            ],
            "name": "transferOperator",
            "outputs": [],
            "stateMutability": "nonpayable",
            "type": "function"
        },
        {
            "inputs": [
                {
                    "internalType": "address",
                    "name": "newOwner",
                    "type": "address"
                }
            ],
            "name": "transferOwnership",
            "outputs": [],
            "stateMutability": "nonpayable",
            "type": "function"
        },
        {
            "inputs": [
                {
                    "internalType": "uint256",
                    "name": "_id",
                    "type": "uint256"
                }
            ],
            "name": "uri",
            "outputs": [
                {
                    "internalType": "string",
                    "name": "",
                    "type": "string"
                }
            ],
            "stateMutability": "view",
            "type": "function"
        },
        {
            "inputs": [
                {
                    "internalType": "uint256",
                    "name": "_amount",
                    "type": "uint256"
                }
            ],
            "name": "withdrawMain",
            "outputs": [],
            "stateMutability": "nonpayable",
            "type": "function"
        },
        {
            "stateMutability": "payable",
            "type": "receive"
        }
    ],
    "bytecode": "0x60c0604052600c60808190526b434658424a47454e4553495360a01b60a09081526200002f91600991906200032a565b5060408051808201909152600c8082526b636678626a67656e6573697360a01b60209092019182526200006591600a916200032a565b50674563918244f400006012553480156200007f57600080fd5b506040518060800160405280605181526020016200392160519139620000b56301ffc9a760e01b6001600160e01b03620002b116565b620000c9816001600160e01b036200030c16565b620000e4636cdb3d1360e11b6001600160e01b03620002b116565b620000ff6303a24d0760e21b6001600160e01b03620002b116565b506000620001156001600160e01b036200032516565b600480546001600160a01b0319166001600160a01b038316908117909155604051919250906000907f8be0079c531659141344cd1fd0a4f28419497f9722a3daafe3b4186f6b6457e0908290a350620001766001600160e01b036200032516565b600580546001600160a01b0319166001600160a01b0392831617908190556040519116906000907f74da04524d50c64947f5dd5381ef1a4dca5cba8ed1d816243f9e48aa0b5617ed908290a360405180608001604052806051815260200162003921605191398051620001f291600f916020909101906200032a565b50604080516001808252818301909252606091602080830190803683370190505090506000816000815181106200022557fe5b6001600160a01b0390921660209283029190910190910152604051630809469f60e11b8152730888000000000000000000000000000000000001906310128d3e9062000276908490600401620003cc565b600060405180830381600087803b1580156200029157600080fd5b505af1158015620002a6573d6000803e3d6000fd5b505050505062000452565b6001600160e01b03198082161415620002e75760405162461bcd60e51b8152600401620002de906200041b565b60405180910390fd5b6001600160e01b0319166000908152602081905260409020805460ff19166001179055565b8051620003219060039060208401906200032a565b5050565b335b90565b828054600181600116156101000203166002900490600052602060002090601f016020900481019282601f106200036d57805160ff19168380011785556200039d565b828001600101855582156200039d579182015b828111156200039d57825182559160200191906001019062000380565b50620003ab929150620003af565b5090565b6200032791905b80821115620003ab5760008155600101620003b6565b6020808252825182820181905260009190848201906040850190845b818110156200040f5783516001600160a01b031683529284019291840191600101620003e8565b50909695505050505050565b6020808252601c908201527f4552433136353a20696e76616c696420696e7465726661636520696400000000604082015260600190565b6134bf80620004626000396000f3fe6080604052600436106102285760003560e01c80638da5cb5b11610123578063af6a3476116100ab578063f2fde38b1161006f578063f2fde38b1461064a578063f3982e5e1461066a578063f5314c971461068a578063f6785413146106aa578063fdff9b4d146106ca5761022f565b8063af6a3476146105aa578063cdf3d474146105ca578063d85d3d27146105ea578063e985e9c51461060a578063f242432a1461062a5761022f565b80639dc29fac116100f25780639dc29fac14610515578063a035b1fe14610535578063a0bcfc7f1461054a578063a22cb4651461056a578063ac18de431461058a5761022f565b80638da5cb5b146104ab57806391b7f5ed146104c057806395d89b41146104e057806398f7ceab146104f55761022f565b80632eb2c2d6116101b15780635a3f2672116101755780635a3f2672146104095780635a7d188a146104295780636352211e14610449578063648ec7b914610476578063715018a6146104965761022f565b80632eb2c2d61461037257806336e0271d146103925780634456eda2146103b25780634e1273f4146103c7578063570ca735146103f45761022f565b806310242590116101f857806310242590146102d957806318160ddd146102fb5780631d073a7a1461031057806329605e77146103325780632d06177a146103525761022f565b8062fdd58e1461023457806301ffc9a71461026a57806306fdde03146102975780630e89341c146102b95761022f565b3661022f57005b600080fd5b34801561024057600080fd5b5061025461024f36600461296b565b6106ea565b60405161026191906132c1565b60405180910390f35b34801561027657600080fd5b5061028a610285366004612ab4565b610746565b6040516102619190612d4f565b3480156102a357600080fd5b506102ac610769565b6040516102619190612d5a565b3480156102c557600080fd5b506102ac6102d4366004612b26565b6107f7565b3480156102e557600080fd5b506102f96102f4366004612787565b610927565b005b34801561030757600080fd5b5061025461097d565b34801561031c57600080fd5b50610325610984565b6040516102619190612be4565b34801561033e57600080fd5b506102f961034d366004612787565b61099c565b34801561035e57600080fd5b506102f961036d366004612787565b6109dd565b34801561037e57600080fd5b506102f961038d3660046127d6565b610a36565b34801561039e57600080fd5b506102f96103ad36600461291e565b610ac5565b3480156103be57600080fd5b5061028a610b18565b3480156103d357600080fd5b506103e76103e23660046129fd565b610b3e565b6040516102619190612d17565b34801561040057600080fd5b50610325610c7d565b34801561041557600080fd5b506103e7610424366004612787565b610c8c565b34801561043557600080fd5b50610325610444366004612b3e565b610cf8565b34801561045557600080fd5b50610469610464366004612b26565b610d2d565b6040516102619190612cca565b34801561048257600080fd5b5061028a610491366004612787565b610d98565b3480156104a257600080fd5b506102f9610dad565b3480156104b757600080fd5b50610325610e2c565b3480156104cc57600080fd5b506102f96104db366004612b26565b610e3b565b3480156104ec57600080fd5b506102ac610e75565b34801561050157600080fd5b5061028a61051036600461296b565b610ed0565b34801561052157600080fd5b506102f961053036600461296b565b610ee5565b34801561054157600080fd5b50610254610f53565b34801561055657600080fd5b506102f9610565366004612aec565b610f59565b34801561057657600080fd5b506102f96105853660046128e3565b610faa565b34801561059657600080fd5b506102f96105a5366004612787565b611078565b3480156105b657600080fd5b506102ac6105c5366004612b26565b6110ce565b3480156105d657600080fd5b506102f96105e536600461296b565b611136565b3480156105f657600080fd5b506102f9610605366004612aec565b6111df565b34801561061657600080fd5b5061028a6106253660046127a2565b61121e565b34801561063657600080fd5b506102f961064536600461287f565b61124c565b34801561065657600080fd5b506102f9610665366004612787565b611294565b34801561067657600080fd5b506102f9610685366004612787565b61134b565b34801561069657600080fd5b506102f96106a5366004612995565b6113a4565b3480156106b657600080fd5b506102f96106c5366004612b26565b611498565b3480156106d657600080fd5b5061028a6106e5366004612787565b6114d7565b60006001600160a01b03831661071b5760405162461bcd60e51b815260040161071290612e36565b60405180910390fd5b5060008181526001602090815260408083206001600160a01b03861684529091529020545b92915050565b6001600160e01b0319811660009081526020819052604090205460ff165b919050565b6009805460408051602060026001851615610100026000190190941693909304601f810184900484028201840190925281815292918301828280156107ef5780601f106107c4576101008083540402835291602001916107ef565b820191906000526020600020905b8154815290600101906020018083116107d257829003601f168201915b505050505081565b600f805460408051602060026001851615610100026000190190941693909304601f810184900484028201840190925281815260609361074093919290918301828280156108865780601f1061085b57610100808354040283529160200191610886565b820191906000526020600020905b81548152906001019060200180831161086957829003601f168201915b5050506000868152601160209081526040918290208054835160026001831615610100026000190190921691909104601f81018490048402820184019094528381529450925083018282801561091d5780601f106108f25761010080835404028352916020019161091d565b820191906000526020600020905b81548152906001019060200180831161090057829003601f168201915b50505050506114ec565b61092f61152f565b6004546001600160a01b0390811691161461095c5760405162461bcd60e51b8152600401610712906130e8565b6001600160a01b03166000908152600660205260409020805460ff19169055565b600d545b90565b73088800000000000000000000000000000000000181565b6109a461152f565b6004546001600160a01b039081169116146109d15760405162461bcd60e51b8152600401610712906130e8565b6109da81611533565b50565b6109e561152f565b6004546001600160a01b03908116911614610a125760405162461bcd60e51b8152600401610712906130e8565b6001600160a01b03166000908152600760205260409020805460ff19166001179055565b610a4385858585856115b1565b60005b8351811015610abd576000848281518110610a5d57fe5b602002602001015190506000848381518110610a7557fe5b6020026020010151905060008111610a9f5760405162461bcd60e51b815260040161071290612f98565b610aa988836117c3565b610ab387836118d6565b5050600101610a46565b505050505050565b60066000610ad161152f565b6001600160a01b0316815260208101919091526040016000205460ff16610b0a5760405162461bcd60e51b81526004016107129061311d565b610b148282611983565b5050565b6005546000906001600160a01b0316610b2f61152f565b6001600160a01b031614905090565b60608151835114610b615760405162461bcd60e51b8152600401610712906131ef565b606083516001600160401b0381118015610b7a57600080fd5b50604051908082528060200260200182016040528015610ba4578160200160208202803683370190505b50905060005b8451811015610c755760006001600160a01b0316858281518110610bca57fe5b60200260200101516001600160a01b03161415610bf95760405162461bcd60e51b815260040161071290612e81565b60016000858381518110610c0957fe5b602002602001015181526020019081526020016000206000868381518110610c2d57fe5b60200260200101516001600160a01b03166001600160a01b0316815260200190815260200160002054828281518110610c6257fe5b6020908102919091010152600101610baa565b509392505050565b6005546001600160a01b031690565b6001600160a01b0381166000908152600b6020908152604091829020805483518184028101840190945280845260609392830182828015610cec57602002820191906000526020600020905b815481526020019060010190808311610cd8575b50505050509050919050565b60106020528160005260406000208181548110610d1157fe5b6000918252602090912001546001600160a01b03169150829050565b600081815260106020908152604091829020805483518184028101840190945280845260609392830182828015610cec57602002820191906000526020600020905b81546001600160a01b03168152600190910190602001808311610d6f5750505050509050919050565b60066020526000908152604090205460ff1681565b610db561152f565b6004546001600160a01b03908116911614610de25760405162461bcd60e51b8152600401610712906130e8565b6004546040516000916001600160a01b0316907f8be0079c531659141344cd1fd0a4f28419497f9722a3daafe3b4186f6b6457e0908390a3600480546001600160a01b0319169055565b6004546001600160a01b031690565b610e4361152f565b6004546001600160a01b03908116911614610e705760405162461bcd60e51b8152600401610712906130e8565b601255565b600a805460408051602060026001851615610100026000190190941693909304601f810184900484028201840190925281815292918301828280156107ef5780601f106107c4576101008083540402835291602001916107ef565b600080610edd84846106ea565b119392505050565b610eed61152f565b6004546001600160a01b03908116911614610f1a5760405162461bcd60e51b8152600401610712906130e8565b610f2682826001611ac1565b610f3082826117c3565b610f3b6000826118d6565b6000818152600c6020526040812055610b1481611bdd565b60125481565b610f6161152f565b6004546001600160a01b03908116911614610f8e5760405162461bcd60e51b8152600401610712906130e8565b610f9781611c91565b8051610b1490600f9060208401906125ba565b816001600160a01b0316610fbc61152f565b6001600160a01b03161415610fe35760405162461bcd60e51b8152600401610712906131a6565b8060026000610ff061152f565b6001600160a01b03908116825260208083019390935260409182016000908120918716808252919093529120805460ff19169215159290921790915561103461152f565b6001600160a01b03167f17307eab39ab6107e8899845ad3d59bd9653f200f220920489ca2b5937696c318360405161106c9190612d4f565b60405180910390a35050565b61108061152f565b6004546001600160a01b039081169116146110ad5760405162461bcd60e51b8152600401610712906130e8565b6001600160a01b03166000908152600760205260409020805460ff19169055565b60116020908152600091825260409182902080548351601f6002600019610100600186161502019093169290920491820184900484028101840190945280845290918301828280156107ef5780601f106107c4576101008083540402835291602001916107ef565b6006600061114261152f565b6001600160a01b0316815260208101919091526040016000205460ff1661117b5760405162461bcd60e51b81526004016107129061311d565b60006111876008611ca4565b600101905060005b828110156111d9576111d1846111cc6111a9848601611ca8565b60405180604001604052806005815260200164173539b7b760d91b8152506114ec565b611983565b60010161118f565b50505050565b6111e761152f565b6004546001600160a01b039081169116146112145760405162461bcd60e51b8152600401610712906130e8565b6109da3382611983565b6001600160a01b03918216600090815260026020908152604080832093909416825291909152205460ff1690565b6000821161126c5760405162461bcd60e51b815260040161071290612f98565b6112798585858585611d7f565b61128385846117c3565b61128d84846118d6565b5050505050565b61129c61152f565b6004546001600160a01b039081169116146112c95760405162461bcd60e51b8152600401610712906130e8565b6001600160a01b0381166112ef5760405162461bcd60e51b815260040161071290612ed2565b6004546040516001600160a01b038084169216907f8be0079c531659141344cd1fd0a4f28419497f9722a3daafe3b4186f6b6457e090600090a3600480546001600160a01b0319166001600160a01b0392909216919091179055565b61135361152f565b6004546001600160a01b039081169116146113805760405162461bcd60e51b8152600401610712906130e8565b6001600160a01b03166000908152600660205260409020805460ff19166001179055565b600660006113b061152f565b6001600160a01b0316815260208101919091526040016000205460ff166113e95760405162461bcd60e51b81526004016107129061311d565b8281146114085760405162461bcd60e51b815260040161071290612dc1565b8060005b81811015610abd5761149086868381811061142357fe5b90506020020160208101906114389190612787565b85858481811061144457fe5b905060200281019061145691906132d8565b8080601f01602080910402602001604051908101604052809392919081815260200183838082843760009201919091525061198392505050565b60010161140c565b6114a061152f565b6004546001600160a01b039081169116146114cd5760405162461bcd60e51b8152600401610712906130e8565b6109da3382611f19565b60076020526000908152604090205460ff1681565b60606115288383604051806020016040528060008152506040518060200160405280600081525060405180602001604052806000815250611f9a565b9392505050565b3390565b6001600160a01b0381166115595760405162461bcd60e51b815260040161071290613058565b6040516001600160a01b038216906000907f74da04524d50c64947f5dd5381ef1a4dca5cba8ed1d816243f9e48aa0b5617ed908290a3600580546001600160a01b0319166001600160a01b0392909216919091179055565b81518351146115d25760405162461bcd60e51b815260040161071290613238565b6001600160a01b0384166115f85760405162461bcd60e51b815260040161071290612fc1565b61160061152f565b6001600160a01b0316856001600160a01b0316148061162657506116268561062561152f565b6116425760405162461bcd60e51b815260040161071290613006565b600061164c61152f565b905061165c818787878787610abd565b60005b845181101561175d57600085828151811061167657fe5b60200260200101519050600085838151811061168e57fe5b602002602001015190506116fb816040518060600160405280602a8152602001613460602a91396001600086815260200190815260200160002060008d6001600160a01b03166001600160a01b03168152602001908152602001600020546121be9092919063ffffffff16565b60008381526001602090815260408083206001600160a01b038e811685529252808320939093558a168152205461173290826121ea565b60009283526001602081815260408086206001600160a01b038d16875290915290932055500161165f565b50846001600160a01b0316866001600160a01b0316826001600160a01b03167f4a39dc06d4c0dbc64b70af90fd698a233a518aa5d07e595d983b8c0526c8f7fb87876040516117ad929190612d2a565b60405180910390a4610abd81878787878761220f565b6001600160a01b0382166000908152600b60205260408120546117ed90600163ffffffff61232616565b6000838152600c6020526040902054909150808214611888576001600160a01b0384166000908152600b6020526040812080548490811061182a57fe5b9060005260206000200154905080600b6000876001600160a01b03166001600160a01b03168152602001908152602001600020838154811061186857fe5b6000918252602080832090910192909255918252600c9052604090208190555b6001600160a01b0384166000908152600b602052604090208054806118a957fe5b600082815260208082208301600019908101839055909201909255938152600c9093525050604081205550565b6001600160a01b0382166000908152600b602090815260408083208054858552600c8452828520819055600181018255908452828420018490558383526010909152902080541561194e578080548061192b57fe5b600082815260209020810160001990810180546001600160a01b03191690550190555b8054600181018255600091825260209091200180546001600160a01b0319166001600160a01b03939093169290921790915550565b61198d6008612368565b60006119996008611ca4565b600081815260116020908152604090912084519293506119bd9290918501906125ba565b50611a6e83826001611a69600f8054600181600116156101000203166002900480601f016020809104026020016040519081016040528092919081815260200182805460018160011615610100020316600290048015611a5e5780601f10611a3357610100808354040283529160200191611a5e565b820191906000526020600020905b815481529060010190602001808311611a4157829003601f168201915b5050505050876114ec565b612371565b611a778161245b565b611a8183826118d6565b7f3ac1cf58af8a32f77353095a2fce1376fd59e92da86e0b82b5ac15c8f23a7315838284604051611ab493929190612c9a565b60405180910390a1505050565b6001600160a01b038316611ae75760405162461bcd60e51b8152600401610712906130a5565b6000611af161152f565b9050611b2181856000611b038761249f565b611b0c8761249f565b60405180602001604052806000815250610abd565b611b6e8260405180606001604052806024815260200161343c6024913960008681526001602090815260408083206001600160a01b038b168452909152902054919063ffffffff6121be16565b60008481526001602090815260408083206001600160a01b03808a16808652919093528184209490945551919291908416907fc3d58168c5ae7397731d063d5bbf3d657854427343f4c083240f7aacaa2d0f6290611bcf90889088906132ca565b60405180910390a450505050565b600d54600090611bf490600163ffffffff61232616565b6000838152600e6020526040812054600d8054939450909284908110611c1657fe5b9060005260206000200154905080600d8381548110611c3157fe5b6000918252602080832090910192909255828152600e90915260409020829055600d805480611c5c57fe5b600190038181906000526020600020016000905590556000600e60008681526020019081526020016000208190555050505050565b8051610b149060039060208401906125ba565b5490565b606081611ccd57506040805180820190915260018152600360fc1b6020820152610764565b8160005b8115611ce557600101600a82049150611cd1565b6060816001600160401b0381118015611cfd57600080fd5b506040519080825280601f01601f191660200182016040528015611d28576020820181803683370190505b50905060001982015b8515611d7657600a860660300160f81b82828060019003935081518110611d5457fe5b60200101906001600160f81b031916908160001a905350600a86049550611d31565b50949350505050565b6001600160a01b038416611da55760405162461bcd60e51b815260040161071290612fc1565b611dad61152f565b6001600160a01b0316856001600160a01b03161480611dd35750611dd38561062561152f565b611def5760405162461bcd60e51b815260040161071290612f4f565b6000611df961152f565b9050611e19818787611e0a8861249f565b611e138861249f565b87610abd565b611e66836040518060600160405280602a8152602001613460602a913960008781526001602090815260408083206001600160a01b038d168452909152902054919063ffffffff6121be16565b60008581526001602090815260408083206001600160a01b038b81168552925280832093909355871681522054611e9d90846121ea565b60008581526001602090815260408083206001600160a01b03808b168086529190935292819020939093559151909188811691908416907fc3d58168c5ae7397731d063d5bbf3d657854427343f4c083240f7aacaa2d0f6290611f0390899089906132ca565b60405180910390a4610abd8187878787876124e3565b6000826001600160a01b031682604051611f3290610981565b60006040518083038185875af1925050503d8060008114611f6f576040519150601f19603f3d011682016040523d82523d6000602084013e611f74565b606091505b5050905080611f955760405162461bcd60e51b81526004016107129061317a565b505050565b805182518451865188516060948a948a948a948a948a948a9491909201909201909101016001600160401b0381118015611fd357600080fd5b506040519080825280601f01601f191660200182016040528015611ffe576020820181803683370190505b509050806000805b88518110156120575788818151811061201b57fe5b602001015160f81c60f81b83838060010194508151811061203857fe5b60200101906001600160f81b031916908160001a905350600101612006565b5060005b87518110156120ac5787818151811061207057fe5b602001015160f81c60f81b83838060010194508151811061208d57fe5b60200101906001600160f81b031916908160001a90535060010161205b565b5060005b8651811015612101578681815181106120c557fe5b602001015160f81c60f81b8383806001019450815181106120e257fe5b60200101906001600160f81b031916908160001a9053506001016120b0565b5060005b85518110156121565785818151811061211a57fe5b602001015160f81c60f81b83838060010194508151811061213757fe5b60200101906001600160f81b031916908160001a905350600101612105565b5060005b84518110156121ab5784818151811061216f57fe5b602001015160f81c60f81b83838060010194508151811061218c57fe5b60200101906001600160f81b031916908160001a90535060010161215a565b50909d9c50505050505050505050505050565b600081848411156121e25760405162461bcd60e51b81526004016107129190612d5a565b505050900390565b6000828201838110156115285760405162461bcd60e51b815260040161071290612f18565b612221846001600160a01b03166125b4565b15610abd5760405163bc197c8160e01b81526001600160a01b0385169063bc197c819061225a9089908990889088908890600401612bf8565b602060405180830381600087803b15801561227457600080fd5b505af19250505080156122a4575060408051601f3d908101601f191682019092526122a191810190612ad0565b60015b6122ed576122b0613369565b806122bb57506122d5565b8060405162461bcd60e51b81526004016107129190612d5a565b60405162461bcd60e51b815260040161071290612d6d565b6001600160e01b0319811663bc197c8160e01b1461231d5760405162461bcd60e51b815260040161071290612dee565b50505050505050565b600061152883836040518060400160405280601e81526020017f536166654d6174683a207375627472616374696f6e206f766572666c6f7700008152506121be565b80546001019055565b6001600160a01b0384166123975760405162461bcd60e51b815260040161071290613280565b60006123a161152f565b90506123b381600087611e0a8861249f565b60008481526001602090815260408083206001600160a01b03891684529091529020546123e6908463ffffffff6121ea16565b60008581526001602090815260408083206001600160a01b03808b16808652919093528184209490945551908416907fc3d58168c5ae7397731d063d5bbf3d657854427343f4c083240f7aacaa2d0f629061244490899089906132ca565b60405180910390a461128d816000878787876124e3565b600d80546000838152600e60205260408120829055600182018355919091527fd7b6990105719101dabeb77144f2a3385c8033acd3af97e9423a695e81ad1eb50155565b6040805160018082528183019092526060918291906020808301908036833701905050905082816000815181106124d257fe5b602090810291909101015292915050565b6124f5846001600160a01b03166125b4565b15610abd5760405163f23a6e6160e01b81526001600160a01b0385169063f23a6e619061252e9089908990889088908890600401612c55565b602060405180830381600087803b15801561254857600080fd5b505af1925050508015612578575060408051601f3d908101601f1916820190925261257591810190612ad0565b60015b612584576122b0613369565b6001600160e01b0319811663f23a6e6160e01b1461231d5760405162461bcd60e51b815260040161071290612dee565b3b151590565b828054600181600116156101000203166002900490600052602060002090601f016020900481019282601f106125fb57805160ff1916838001178555612628565b82800160010185558215612628579182015b8281111561262857825182559160200191906001019061260d565b50612634929150612638565b5090565b61098191905b80821115612634576000815560010161263e565b80356001600160a01b038116811461074057600080fd5b60008083601f84011261267a578182fd5b5081356001600160401b03811115612690578182fd5b60208301915083602080830285010111156126aa57600080fd5b9250929050565b600082601f8301126126c1578081fd5b81356126d46126cf82613344565b61331e565b8181529150602080830190848101818402860182018710156126f557600080fd5b60005b84811015612714578135845292820192908201906001016126f8565b505050505092915050565b600082601f83011261272f578081fd5b81356001600160401b03811115612744578182fd5b612757601f8201601f191660200161331e565b915080825283602082850101111561276e57600080fd5b8060208401602084013760009082016020015292915050565b600060208284031215612798578081fd5b6115288383612652565b600080604083850312156127b4578081fd5b6127be8484612652565b91506127cd8460208501612652565b90509250929050565b600080600080600060a086880312156127ed578081fd5b85356127f881613410565b9450602086013561280881613410565b935060408601356001600160401b0380821115612823578283fd5b61282f89838a016126b1565b94506060880135915080821115612844578283fd5b61285089838a016126b1565b93506080880135915080821115612865578283fd5b506128728882890161271f565b9150509295509295909350565b600080600080600060a08688031215612896578081fd5b6128a08787612652565b94506128af8760208801612652565b9350604086013592506060860135915060808601356001600160401b038111156128d7578182fd5b6128728882890161271f565b600080604083850312156128f5578182fd5b6128ff8484612652565b915060208301358015158114612913578182fd5b809150509250929050565b60008060408385031215612930578182fd5b823561293b81613410565b915060208301356001600160401b03811115612955578182fd5b6129618582860161271f565b9150509250929050565b6000806040838503121561297d578182fd5b6129878484612652565b946020939093013593505050565b600080600080604085870312156129aa578384fd5b84356001600160401b03808211156129c0578586fd5b6129cc88838901612669565b909650945060208701359150808211156129e4578384fd5b506129f187828801612669565b95989497509550505050565b60008060408385031215612a0f578182fd5b82356001600160401b0380821115612a25578384fd5b81850186601f820112612a36578485fd5b80359250612a466126cf84613344565b80848252602080830192508084018a828389028701011115612a66578889fd5b8894505b86851015612a9057612a7c8b82612652565b845260019490940193928101928101612a6a565b509096508701359350505080821115612aa7578283fd5b50612961858286016126b1565b600060208284031215612ac5578081fd5b813561152881613425565b600060208284031215612ae1578081fd5b815161152881613425565b600060208284031215612afd578081fd5b81356001600160401b03811115612b12578182fd5b612b1e8482850161271f565b949350505050565b600060208284031215612b37578081fd5b5035919050565b60008060408385031215612b50578182fd5b50508035926020909101359150565b6000815180845260208085019450808401835b83811015612b8e57815187529582019590820190600101612b72565b509495945050505050565b60008151808452815b81811015612bbe57602081850181015186830182015201612ba2565b81811115612bcf5782602083870101525b50601f01601f19169290920160200192915050565b6001600160a01b0391909116815260200190565b6001600160a01b0386811682528516602082015260a060408201819052600090612c2490830186612b5f565b8281036060840152612c368186612b5f565b8381036080850152612c488186612b99565b9998505050505050505050565b6001600160a01b03868116825285166020820152604081018490526060810183905260a060808201819052600090612c8f90830184612b99565b979650505050505050565b600060018060a01b038516825283602083015260606040830152612cc16060830184612b99565b95945050505050565b6020808252825182820181905260009190848201906040850190845b81811015612d0b5783516001600160a01b031683529284019291840191600101612ce6565b50909695505050505050565b6000602082526115286020830184612b5f565b600060408252612d3d6040830185612b5f565b8281036020840152612cc18185612b5f565b901515815260200190565b6000602082526115286020830184612b99565b60208082526034908201527f455243313135353a207472616e7366657220746f206e6f6e20455243313135356040820152732932b1b2b4bb32b91034b6b83632b6b2b73a32b960611b606082015260800190565b6020808252601390820152720eae4d240d8cadccee8d040dad2e6dac2e8c6d606b1b604082015260600190565b60208082526028908201527f455243313135353a204552433131353552656365697665722072656a656374656040820152676420746f6b656e7360c01b606082015260800190565b6020808252602b908201527f455243313135353a2062616c616e636520717565727920666f7220746865207a60408201526a65726f206164647265737360a81b606082015260800190565b60208082526031908201527f455243313135353a2062617463682062616c616e636520717565727920666f7260408201527020746865207a65726f206164647265737360781b606082015260800190565b60208082526026908201527f4f776e61626c653a206e6577206f776e657220697320746865207a65726f206160408201526564647265737360d01b606082015260800190565b6020808252601b908201527f536166654d6174683a206164646974696f6e206f766572666c6f770000000000604082015260600190565b60208082526029908201527f455243313135353a2063616c6c6572206973206e6f74206f776e6572206e6f7260408201526808185c1c1c9bdd995960ba1b606082015260800190565b6020808252600f908201526e0416d6f756e74206d757374203e203608c1b604082015260600190565b60208082526025908201527f455243313135353a207472616e7366657220746f20746865207a65726f206164604082015264647265737360d81b606082015260800190565b60208082526032908201527f455243313135353a207472616e736665722063616c6c6572206973206e6f74206040820152711bdddb995c881b9bdc88185c1c1c9bdd995960721b606082015260800190565b6020808252602d908201527f6f70657261746f723a207a65726f206164647265737320676976656e20666f7260408201526c103732bb9037b832b930ba37b960991b606082015260800190565b60208082526023908201527f455243313135353a206275726e2066726f6d20746865207a65726f206164647260408201526265737360e81b606082015260800190565b6020808252818101527f4f776e61626c653a2063616c6c6572206973206e6f7420746865206f776e6572604082015260600190565b60208082526039908201527f4d696e746572526f6c653a2063616c6c657220646f6573206e6f74206861766560408201527f20746865204d696e74657220726f6c65206f722061626f766500000000000000606082015260800190565b6020808252601290820152712a2920a729a322a91021a32c1022a92927a960711b604082015260600190565b60208082526029908201527f455243313135353a2073657474696e6720617070726f76616c20737461747573604082015268103337b91039b2b63360b91b606082015260800190565b60208082526029908201527f455243313135353a206163636f756e747320616e6420696473206c656e677468604082015268040dad2e6dac2e8c6d60bb1b606082015260800190565b60208082526028908201527f455243313135353a2069647320616e6420616d6f756e7473206c656e677468206040820152670dad2e6dac2e8c6d60c31b606082015260800190565b60208082526021908201527f455243313135353a206d696e7420746f20746865207a65726f206164647265736040820152607360f81b606082015260800190565b90815260200190565b918252602082015260400190565b6000808335601e198436030181126132ee578283fd5b808401803592506001600160401b03831115613308578384fd5b602001925050368190038213156126aa57600080fd5b6040518181016001600160401b038111828210171561333c57600080fd5b604052919050565b60006001600160401b03821115613359578081fd5b5060209081020190565b60e01c90565b600060443d101561337957610981565b600481823e6308c379a061338d8251613363565b1461339757610981565b6040513d600319016004823e80513d6001600160401b0381602484011181841117156133c65750505050610981565b828401915081519250808311156133e05750505050610981565b503d830160208383010111156133f857505050610981565b601f91909101601f1916810160200160405291505090565b6001600160a01b03811681146109da57600080fd5b6001600160e01b0319811681146109da57600080fdfe455243313135353a206275726e20616d6f756e7420657863656564732062616c616e6365455243313135353a20696e73756666696369656e742062616c616e636520666f72207472616e73666572a264697066735822122010e6413abeb016e52aa7e7eed1ffe97106462afc1e3c5161fdfba81874b5016664736f6c6343000609003368747470733a2f2f7473706163652d313235333437303031342e636f732e61702d686f6e676b6f6e672e6d7971636c6f75642e636f6d2f6e66742f636678626a67656e657369732f6d657461646174612f",
    "sourcePath": "d:/sol/NFT1.0/contracts/nft1.0/CFXBJGENESIS.sol",
    "compiler": {
        "name": "solc",
        "version": "0.6.9+commit.3e3065ac"
    },
    "functionHashes": {
        "SPONSOR()": "1d073a7a",
        "addItem(address,string)": "36e0271d",
        "addManager(address)": "2d06177a",
        "addMiner(address)": "f3982e5e",
        "balanceOf(address,uint256)": "00fdd58e",
        "balanceOfBatch(address[],uint256[])": "4e1273f4",
        "batchAddItemByAddress(address[],string[])": "f5314c97",
        "batchAddItemByNumber(address,uint256)": "cdf3d474",
        "burn(address,uint256)": "9dc29fac",
        "isApprovedForAll(address,address)": "e985e9c5",
        "isOperator()": "4456eda2",
        "isTokenOwner(address,uint256)": "98f7ceab",
        "managers(address)": "fdff9b4d",
        "miners(address)": "648ec7b9",
        "mint(string)": "d85d3d27",
        "name()": "06fdde03",
        "operator()": "570ca735",
        "owner()": "8da5cb5b",
        "ownerOf(uint256)": "6352211e",
        "ownerOfAddress(uint256,uint256)": "5a7d188a",
        "price()": "a035b1fe",
        "removeManager(address)": "ac18de43",
        "removeMiner(address)": "10242590",
        "renounceOwnership()": "715018a6",
        "safeBatchTransferFrom(address,address,uint256[],uint256[],bytes)": "2eb2c2d6",
        "safeTransferFrom(address,address,uint256,uint256,bytes)": "f242432a",
        "setApprovalForAll(address,bool)": "a22cb465",
        "setBaseUri(string)": "a0bcfc7f",
        "setPrice(uint256)": "91b7f5ed",
        "supportsInterface(bytes4)": "01ffc9a7",
        "symbol()": "95d89b41",
        "tokenMetaData(uint256)": "af6a3476",
        "tokensOf(address)": "5a3f2672",
        "totalSupply()": "18160ddd",
        "transferOperator(address)": "29605e77",
        "transferOwnership(address)": "f2fde38b",
        "uri(uint256)": "0e89341c",
        "withdrawMain(uint256)": "f6785413"
    },
    "gasEstimates": {
        "creation": {
            "codeDepositCost": "2700600",
            "executionCost": "infinite",
            "totalCost": "infinite"
        },
        "external": {
            "SPONSOR()": "342",
            "addItem(address,string)": "infinite",
            "addManager(address)": "22228",
            "addMiner(address)": "22160",
            "balanceOf(address,uint256)": "infinite",
            "balanceOfBatch(address[],uint256[])": "infinite",
            "batchAddItemByAddress(address[],string[])": "infinite",
            "batchAddItemByNumber(address,uint256)": "infinite",
            "burn(address,uint256)": "infinite",
            "isApprovedForAll(address,address)": "infinite",
            "isOperator()": "1203",
            "isTokenOwner(address,uint256)": "infinite",
            "managers(address)": "1401",
            "miners(address)": "1380",
            "mint(string)": "infinite",
            "name()": "infinite",
            "operator()": "1204",
            "owner()": "1116",
            "ownerOf(uint256)": "infinite",
            "ownerOfAddress(uint256,uint256)": "2196",
            "price()": "1095",
            "removeManager(address)": "22221",
            "removeMiner(address)": "22134",
            "renounceOwnership()": "24334",
            "safeBatchTransferFrom(address,address,uint256[],uint256[],bytes)": "infinite",
            "safeTransferFrom(address,address,uint256,uint256,bytes)": "infinite",
            "setApprovalForAll(address,bool)": "infinite",
            "setBaseUri(string)": "infinite",
            "setPrice(uint256)": "21171",
            "supportsInterface(bytes4)": "1363",
            "symbol()": "infinite",
            "tokenMetaData(uint256)": "infinite",
            "tokensOf(address)": "infinite",
            "totalSupply()": "1097",
            "transferOperator(address)": "23779",
            "transferOwnership(address)": "24488",
            "uri(uint256)": "infinite",
            "withdrawMain(uint256)": "infinite"
        },
        "internal": {
            "_addTokenToAllTokensEnumeration(uint256)": "60926",
            "_addTokenToOwnerEnumeration(address,uint256)": "145424",
            "_removeTokenFromAllTokensEnumeration(uint256)": "infinite",
            "_removeTokenFromOwnerEnumeration(address,uint256)": "infinite",
            "_tsMint(address,string memory)": "infinite",
            "transferMain(address,uint256)": "infinite"
        }
    }
}